S00E00006475655372762E737265639D
S214080000E02A0720B50C0800B10C0800B10C08005F
S214080010B10C0800B10C0800B10C08000000000084
S214080020000000000000000000000000B10C0800FE
S214080030B10C080000000000B10C0800B10C080064
S214080040B10C0800B10C0800B10C0800B10C08008F
S214080050B10C0800B10C0800B10C0800B10C08007F
S214080060B10C0800B10C080000000000210B0800C5
S214080070350B0800490B08005D0B0800000000005F
S21408008000000000B10C0800B10C0800B10C080014
S214080090B10C0800B10C0800B10C0800B10C08003F
S2140800A0B10C080000000000B10C0800B10C0800F4
S2140800B0B10C0800B10C0800B10C0800B10C08001F
S2140800C0B10C0800B10C0800B10C0800B10C08000F
S2140800D0B10C0800B10C0800B10C0800B10C0800FF
S2140800E0B10C0800B10C0800B10C0800B10C0800EF
S2140800F0B10C080010B5054C237833B9044B13B17E
S2140801000448AFF300800123237010BDEC090720D4
S21408011000000000D05B080008B5064B1BB1064877
S2140801200649AFF300800648036813B1054B03B1D0
S214080130984708BD00000000D05B0800F0090720BB
S214080140D05B08000000000030B4012404600024DE
S214080150446040F20225C0F82051C0F80441C0F8B7
S214080160144145682B435200B1FBF2F14D1E2D0297
S214080170ADB22B434360204630BC7047436823F03B
S2140801801003436043681943416070474368194346
S214080190D201D3B219434160704700BF10B4446817
S2140801A02243090601F0706422431B0703F04053FC
S2140801B01A4342605DF8044B704700BF0223036091
S2140801C0704700BF012303FA01F10161704700BFC1
S2140801D04FF6FF7303617047014B185C704700BF0A
S2140801E02C01072008B5024602480349034B9847E6
S2140801F008BD00BF00400940080A0720F5060800A9
S21408020030B585B02420174B9847002828D1164DBE
S21408021028460021154B9847154B01930024029455
S214080220144B0393284601A9134B984713490C818E
S2140802308C720B234B60FF230B61CC600C60284646
S2140802400F4B98470F484FF080514FF480320E4BB3
S2140802509847284621460D4B984720460C4B98470A
S21408026005B030BD590C08000040094025070800B5
S21408027018E4030000BD0105B1050800080A0720B8
S214080280F105080000100E40B1080800190708001C
S214080290E50108000C4BB3FBF0F00C4A10604FF475
S2140802A000620B4B1A605022043B1A6003F5C063C9
S2140802B04FF480725A665A655A62C3F880201A6FDD
S2140802C022F480721A677047D01B500020080E4030
S2140802D004080E40024B186800F00200704700BF82
S2140802E014080E40024B186800F00100704700BF63
S2140802F014080E40014B1860704700BF1C080E40DB
S214080300014B1878704700BF18080E4010B50C4609
S2140803100F4B9847E1B2430903F5001303F207733E
S2140803205B02012905D100F01F0201FA02F21A61E8
S21408033006E029B900F01F02012101FA02F25A610B
S21408034000F01F00012202FA00F0C3F8A00010BD5A
S214080350D901080010B50C46C0B20B4B98474309A4
S21408036003F5001303F207735B0234B100F01F00B5
S214080370012202FA00F0186310BD00F01F000122E7
S21408038002FA00F0586310BDD901080008B5C0B2DB
S214080390094B9847430903F5001303F207735B02FA
S2140803A0DB6B00F01F00012202FA00F018420CBFB7
S2140803B00020012008BD00BFD901080008B5014B80
S2140803C0984708BDE501080008B5014B984708BDE1
S2140803D0AD07080038B50546074CA0470028FCD0EE
S2140803E02846064B9847044CA0470028FCD00A200D
S2140803F0024B984738BD00BFD5020800F502080032
S21408040038B50546034CA0470028FCD02846024BC2
S214080410984738BDD5020800F502080008B5044B11
S214080420984710B1034B984708BD002008BD00BF89
S214080430E50208000103080010B5034CA047002891
S214080440FCD0024B984710BDE50208001D040800C2
S21408045030B585B0024601A80849094B98479DF86B
S214080460040030B101AC074DA84714F8010F002866
S214080470FAD10D20044B984705B030BDEC5908005A
S214080480D50F080001040800D5030800F8B50024B5
S214080490284D294F294E00E00124062CFDD8DFE818
S2140804A004F0041C212C373F4400254B9847572856
S2140804B00DD005D80528EFD0562808BF0224ECE74B
S2140804C0592808D005D35A2808BF0624E5E7032488
S2140804D0E3E70424E1E70524DFE70620194B9847FD
S2140804E00024DAE7A8470446A847A0F10A012046F0
S2140804F049B2154B98470024CFE7A8470446A847B3
S214080500A0F10A0160B249B2104B98470024C4E72C
S214080510A84740B20E4B9847C0B2B0470024BCE785
S214080520A8470C4B98470024B7E7A847B847B047F2
S2140805300024B2E739040800C9030800510408007B
S2140805401D040800D50308000D030800550308001D
S2140805508D030800BD030800F0B48CB007460E46AD
S21408056001AC124D0FCD0FC40FCD0FC495E8070090
S21408057084E807006A46002352F8044FB6FBF4F4F2
S214080580B4FBF7F4B4F5807F03D901330B2BF3D112
S21408059004E00A2B05D844EA032004E04FF6FF706F
S2140805A001E04FF6FF700CB0F0BC7047F059080039
S2140805B070B506460C46086840B189680B4B9847E4
S2140805C005464FF6FF73984201D10EE00025606895
S2140805D040B1A168054B98474FF6FF73984204D080
S2140805E045EA00453560002070BD70BD5905080015
S2140805F070B40B688C8A4A6802F00F0214430D899F
S2140806002C438A7A44EA42248A7D44EA0244CA7D14
S21408061044EA42440A7E44EA824400EB4312C2F8A3
S2140806200042CC68C2F804420C69C2F80C428A7DC3
S2140806303AB18C8B4A8B42EA044400EB4312C2F868
S2140806401842856C4FF001129A40D2431540CE7F6F
S2140806509E408C7F9C4044EA06442C438464446C49
S214080660224091F821509D4091F820409C4044EA51
S21408067005442243426401229A4091F822401CB164
S214080680046A1443046203E0046A24EA0204046267
S21408069091F82440012C846E0CBF1443944384665E
S2140806A091F82540012C846E0CBF44EA024224EAE5
S2140806B002428266032B0CD8C46EDB00FF229A40E7
S2140806C024EA020291F8231001FA03F31343C366DF
S2140806D00CE0043B046FDB00FF229A4024EA020287
S2140806E091F8231001FA03F313430367002070BC44
S2140806F0704700BF10B40C680B69934206D3CA60F3
S21408070000EB4410C0F80822002001E04FF6FF7006
S2140807105DF8044B704700BF012303FA01F14160FE
S214080720704700BF012303FA01F18160704700BFDC
S21408073038B52520134B9847134C20461349144ABE
S2140807400823144DA847204600214FF440120123E1
S214080750114DA84720461021104B984720460721E0
S2140807600F4DA84720460621A84720460521A8473A
S21408077020460C4B9847204600210A460A4B9847C5
S21408078038BD00BF590C080000000C4000BD01052C
S21408079040420F00490108009D0108007D0108003D
S2140807A0C5010800D10108008D01080038B50546C6
S2140807B0044C2046044B9847143554F8250080B25C
S2140807C038BD00BF00000C40BD01080010B50E483B
S2140807D00E4B984700203E210D4B98470D4CA047DE
S2140807E00028FCD00C4B98470C4A0D4B9A620D4CCF
S2140807F0A0470028FCD010200B4B98470B4B984777
S2140808000148024B984710BD00BD0105A50007200A
S214080810D50B0800290C0800390C0800013F0D20EC
S21408082000060E40490C0800710B0800650D08000C
S21408083010B54FF40042164B5A600B20154CA047D3
S2140808400C20A0470D20A0470E20A0473B204FF0C5
S2140808506051114CA04755204FF06051A0475620D4
S2140808604FF06051A04768200C49A0475C200C490F
S214080870A0470C484FF440710B4A0C4B98472B2066
S2140808804FF00061A0472A204FF00061A04710BD36
S214080890501A0E40590C080055090800790000281F
S2140808A001000028000E0E4001000008290A080072
S2140808B04264B1F1805F16D004D8C1B1B1F1006FBF
S2140808C00AD013E0B1F1405F11D0B1F1605F0ED0ED
S2140808D0B1F1205F0AD17047036F016F0B4023EA1E
S2140808E00203036702E0036F13430367426070471F
S2140808F0416412F0010F14BF4166016612F00A0F38
S21408090014BF0162416212F0020F02D0C0F88010D4
S21408091004E012F0080F18BFC0F8841041610160A7
S214080920704700BF10B44164019C0CB1416600E0FA
S21408093001660BB1016500E041650AB1016300E09C
S2140809404163016101605DF8044B7047C06C7047F5
S214080950806C704770B582B00D46440904F50014E3
S21408096004F20774660201F0F044B4F1205F30D058
S21408097006D8B4F1006F0AD0B4F1805F18D049E009
S214080980B4F1405F30D0B4F1605F2DD042E000F0A3
S2140809901F000124844030464FF0006122461F4B5A
S2140809A0984715F0010F14BF74663466012032E0CC
S2140809B000F01F000124844030464FF08051224644
S2140809C0164B984715F0010F14BF7466346601205D
S2140809D021E000F01F010124304604FA01F12A46FE
S2140809E00F4B9847204616E000F01F01012405F03B
S2140809F0605205EA04030093304604FA01F1B2F1A6
S214080A00605F14BF00220122C5F38003054DA84786
S214080A10204600E0002002B070BD00BFB108080004
S214080A20F108080025090800F0B583B007460E4609
S214080A30154602F0F044B4F1205F26D006D8B4F18B
S214080A40006F0AD0B4F1805F13D034E0B4F1405F91
S214080A501FD0B4F1605F1CD02DE04FF00061324625
S214080A60164B984715F0010F14BF7E663E660120A8
S214080A7022E04FF080513246104B984715F0010F90
S214080A8014BF7E663E66012016E00D4B984701208F
S214080A9012E005F0605205F001030093384631462F
S214080AA0B2F1605F14BF00220122C5F38003054C33
S214080AB0A047012000E0002003B0F0BDB108080000
S214080AC0F1080800250908002DE9F04104460E46FD
S214080AD0104B9847054620460F4B9847054017D0B9
S214080AE00E4F07F10C046C3754F80C3CB3420AD18D
S214080AF054F8081C294206D023683046984754F80C
S214080B00083C25EA0305BC4202D01034002DEBD180
S214080B10BDE8F0814D09080051090800300A072091
S214080B2008B502480B21024B984708BD000E0E4038
S214080B30C90A080008B502480C21024B984708BDA8
S214080B4000100E40C90A080008B502480D21024BDD
S214080B50984708BD00120E40C90A080008B50248A2
S214080B600E21024B984708BD00140E40C90A08001B
S214080B70174B1A6B22F07002104318639B6E13F023
S214080B80080F09D14FF40063114901E0013B19D061
S214080B908A6E12F0080FF9D00D4B1A6B22F003027A
S214080BA042F002021A63986E10F008000CD14FF457
S214080BB00063074901E0013B08D08A6E12F0080F6F
S214080BC0F9D0704701207047002070470120704711
S214080BD000060E4038B111490B6A114A1A40114BEB
S214080BE013430B6270470D4A136A23F45C1323F011
S214080BF0030343F45C1343F00103090289B20B4371
S214080C001362936E13F0010FFBD0044A136A43F085
S214080C109B7343F480331362704700BF00060E4090
S214080C20FCFFC8FE02003701024B986E00F48030C5
S214080C30704700BF00060E404FF00052014B9A6204
S214080C40704700BF00060E40024B986E00F0020088
S214080C50704700BF00060E402C2820D81F280DD845
S214080C60124B9A69012383401A40934219D00123F4
S214080C7003FA00F00D4B1861002070470B4BD3F8B1
S214080C8008212038012383401A4093420BD00123C1
S214080C9003FA00F0054BC3F8000100207047012056
S214080CA07047002070470020704700BF00060E40BF
S214080CB0FEE700BF10B51E4B1E4A9A4203D01E4BD5
S214080CC01B4A9A4204D31D4B1D4A9A420FD31AE078
S214080CD01C4B1D4CE41A24F0030404340023144867
S214080CE014495A581A500433A342FAD1EBE7174B63
S214080CF01749C91A21F003011A1D1144002243F8A6
S214080D00042F8B42FBD1134A22F0604323F07F0363
S214080D1011498B6002F16042B2F5801F03D28A68DF
S214080D2042F000528A600D4B98470D4B9847FEE7F5
S214080D3000000720D05B0800EC090720DC0A072023
S214080D40EC09072004000720EF090720E809072018
S214080D50D70A07200000080000ED00E0F10E0800A2
S214080D60B50E08003E4B1B6B03F00303032B5FD83E
S214080D70DFE803F0020E2B2B3A4B5B6913F0800F6B
S214080D8014BF4FF400424FF4FA42374B1A604FE054
S214080D90334B1B6A13F0807F03D0344A324B1A60F9
S214080DA046E0334A304B1A602D4B1B6A03F070033B
S214080DB0102B02D0202B04D03AE02E4A2A4B1A6079
S214080DC036E02A4A284B1A6032E0254B1B6A13F095
S214080DD0807F03D0254A244B1A6012E0244A224B0F
S214080DE01A601F4B1B6A03F07003102B02D0202BCF
S214080DF004D006E01F4A1C4B1A6002E01B4A1A4B36
S214080E001A60174B1B6B03F00303022B0DD1144B10
S214080E10986A996A144BC0F30A401A6800FB0222C3
S214080E20C9B2B2FBF1F21A6002E0134A0E4B1A601E
S214080E300B4B1B6B03F07003702B07D10A4B1A6819
S214080E400E49A1FB020252081A607047044B196B40
S214080E50054BC1F302111A68CA401A60704700BFF2
S214080E6000060E40101A0E4070010720001BB7003F
S214080E7000093D0000127A00001C4E0EABAAAAAA72
S214080E80094B1B6813B9094A074B1A60064B1B68BF
S214080E901A180749914204DB1046034A10601846A0
S214080EA070474FF0FF307047A00A0720E02A072057
S214080EB0FC7F082008B5084B9847084B98474FF41E
S214080EC0E130074B9847074B9847074B9847074B1F
S214080ED09847002008BD00BFCD0708003108080065
S214080EE09502080031070800010208008D04080072
S214080EF070B50F4E0F4D761BB61007D0043D002474
S214080F00013455F8043F9847A642F9D10A4E0B4DCE
S214080F1004F048FE761BB61008D0043D00240134C1
S214080F2055F8043F9847A642F9D170BD70BD00BF7A
S214080F30B05B0800B05B0800B85B0800B05B080050
S214080F40F0B4840743D0541E002A3ED0CDB20346E0
S214080F5003E0621E002C38D0144603F8015B9A079B
S214080F60F7D1032C2AD9CDB245EA05250F2C45EA38
S214080F70054515D9A4F110073F0903F1100606EB3D
S214080F8007161A46156055609560D5601032B2424D
S214080F90F8D104F00F040137032C03EB07130DD91F
S214080FA01E462246043A032A46F8045BFAD8221F4D
S214080FB022F003020432134404F003042CB1C9B22D
S214080FC01C4403F8011BA342FBD1F0BC704714462F
S214080FD00346C6E70EB4F0B59CB021AC54F8042B13
S214080FE00E49064623464FF4027E6FF00045086811
S214080FF04FF6FF7702A9029606960194ADF814E01C
S21408100004950795ADF8167000F03AF8029B002292
S2140810101A701CB0BDE8F04003B07047A005072062
S21408102020F0030110F00300C0F1000051F8043B63
S21408103000F1040C4FEACC0C6FF000021CBF22FA39
S2140810400CF213434FF0010C4CEA0C2C4CEA0C4CF7
S214081050A3EB0C0222EA030212EACC1204BF51F8F0
S214081060043B0430F4D013F0FF0F1FBF013013F415
S2140810707F4F013013F47F0F18BF0130704700BF51
S2140810802DE9F04FC9B010930C9191460D9002F0DF
S21408109061FB00681590FFF7C3FF0C9C1890A389A6
S2140810A01E0603D52369002B01F0818038ACA446C0
S2140810B008942B9400250024CDE9164500231193A7
S2140810C02D932C931A9319930E93664699F800302D
S2140810D0002B00F0F880252B00F0F58009F10102BE
S2140810E001E0252B04D0137814460132002BF8D1E2
S2140810F0C9EB04057DB12C9B2D9A01332A44072B96
S214081100C6F8009075602D922C9300F3C2800836BE
S2140811100E9828440E902378002B00F0C2800023F7
S21408112094F801801A468DF88F300F93099304F1CE
S21408113001094FF0FF340A9409F10109A8F12003C8
S214081140582B00F2C583DFE813F06A02C303C30313
S2140811507102C303C303C303C303C303C303140354
S2140811606603C3039D00C000C30378027F027F02A4
S2140811707F027F027F027F027F027F027F02C30315
S214081180C303C303C303C303C303C303C303C30322
S214081190C30390027103C3037103C303C303C303EA
S2140811A0C3036A03C303C3037800C303C303C303A9
S2140811B0C303C3035900C303C303AF02C303C30374
S2140811C0C303C303C303C303C303C303C303C303E2
S2140811D037034803710371037103FF024803C3030F
S2140811E0C3030803C303C5027C002003A303C30389
S2140811F0D902C3035F00C303C303DE00DDF824C0BF
S2140812004CF0100CCDF824C0099CA20600F15483BB
S214081210099CE30600F1BD85DDF824C01CF0400FEC
S21408122000F0B785DDF840C00025BCF800400CF19A
S214081230040C0123CDF840C08CE0099D45F010054C
S2140812400995DDF824C01CF0200340F02A83DDF859
S21408125024C01CF0100240F0A485DDF824C01CF061
S214081260400300F09E85DDF840C01346BCF80040F9
S2140812700CF1040C0025CDF840C06BE00F9C1093D1
S21408128064420F94099D45F00405099599F8008075
S21408129052E70D980C992BAA03F04AFB40B938AED2
S2140812A036E72D9B23B10D980C992BAA03F040FB2B
S2140812B00C9C0E98A38913F0400F18BF4FF0FF3010
S2140812C049B0BDE8F08F4C4625E799F8008009F14B
S2140812D00100B8F12A0F01F00C81A8F13003092BA0
S2140812E098BF002101F26B8010F8018B01EB810199
S2140812F003EB4101A8F13003092BF5D941EAE17166
S2140813000A9181461AE7099DA14CAF061A948DF8F2
S2140813108F2040F1D181DDF840C00CF1070323F09F
S214081320070303F108041094D3E90045DDF824C048
S2140813301CF0010F00F0628454EA050000F05E8499
S21408134030234CF0020C8DF890308DF89180CDF853
S21408135024C002234FF0000A8DF88FA00A990029AE
S21408136005DBDDF824C02CF0800CCDF824C054EA48
S214081370050040F0C5820A99002940F0C182002B7A
S21408138040F03884DDF824C01CF0010F00F03284E9
S21408139048AF3023089D07F8413DEC1BDDF828C010
S2140813A000256445A8BFA446CDF82CC01495BAF10C
S2140813B0000F02D00B9D01350B95099B13F0020315
S2140813C0129302D00B9D02350B95DDF824C01CF055
S2140813D0840CCDF84CC040F090820F9DDDF82CC0F0
S2140813E0CCEB050BBBF1000F40F38782BBF1100F67
S2140813F02D992C9ADFF8A0A12CDD1B97304657466E
S2140814001025CA460C9EA1460D9C06E0ABF1100BB3
S214081410BBF1100F00F1080017DD01321031072A62
S2140814202D912C9207604560F0DD204631462BAAA8
S21408143003F07EFA00287FF43BAFABF1100BBBF14C
S214081440100F2D992C9A38A8E7DC4C46D146BA4698
S2140814501B9F064601320BEB010C072ACDF8B4C0D9
S2140814602C9286E8000C00F31A849DF88FA00836A4
S214081470BAF1000F0FD02C9B0CF1010C01330DF1C3
S2140814808F010122072BCDF8B4C02C9386E80600FE
S21408149000F3A4830836129B73B12C9B0CF1020C44
S2140814A0013324A90222072BCDF8B4C02C9386E872
S2140814B0060000F387830836139D802D00F0CA8245
S2140814C00A9DC4EB050ABAF1000F3BDDBAF1100F0E
S2140814D02C9B304D2BDD0A9432464FF0100B2E46CF
S2140814E061460D9C0C9D06E0AAF1100ABAF1100F91
S2140814F002F1080217DD01331031072B2D912C93CA
S21408150082E84008F0DD204629462BAA03F010FAA8
S21408151000287FF4CDAEAAF1100ABAF1100F2D9963
S2140815202C9B38AAE7DC0A9C35468C4616460133BF
S214081530D444072BCDF8B4C02C9386E8200400F3D7
S21408154035830836099DED0500F124822C9BA444BA
S2140815500133072BCDF8B4C0376074602C9300F3C2
S2140815600F830836099C630749D50F9D0B982C1ADC
S214081570002C44DD102C2C9BDFF81CA02BDD5746D6
S21408158010256246DDF83080DDF834A00BE000BF99
S214081590585A0800245A0800785A0800103C102C9C
S2140815A006F1080615DD01331032072B2D922C9311
S2140815B037607560F2DD504641462BAA03F0B8F94D
S2140815C000287FF475AE103C102C2D9A2C9B38AE54
S2140815D0E9DC9446BA460133A444072BCDF8B4C0D8
S2140815E02C93C6F800A0746009DD0D980C992BAAF8
S2140815F003F09EF900287FF45BAEDDF8B4C00E9CBD
S2140816000B980F9DA842ACBF241864190E94BCF121
S214081610000F40F0C18200232C9338AE56E599F8A7
S2140816200080002A7FF488AD202285E5099D45F0D4
S2140816300105099599F800807EE5099D45F0800525
S214081640099599F8008077E50024A8F130030F94EF
S214081650214619F8018B01EB810103EB4101A8F142
S2140816603003092BF5D90F9168E5DDF824C08DF80D
S2140816708F204CF0100CCDF824C0099CA50640F12C
S214081680B280109DE91D21F00701D1E90023083139
S214081690109114461D46002A73F1000CC0F294837C
S2140816A09DF88FA0012359E6099DB64CAF068DF824
S2140816B08F201A943FF52FAE099DED0640F143841E
S2140816C0DDF840C00025DCF800400CF1040CCDF82D
S2140816D040C02BE6DDF824C08DF88F201CF0200FC4
S2140816E000F04084109C21680E9CE5172B46109D40
S2140816F0224604351095C1E90023E7E4109C4FF014
S214081700000A27688DF88FA0251D002F00F0E985B0
S2140817100A9C3846002CC0F29B855146224602F0A9
S214081720B9FA002800F013860A9CC01BA042B8BF6E
S2140817300446109524EAE475CDF828A0CDF850A004
S2140817400B959DF88FA032E6DDF824C04CF0400CCF
S214081750CDF824C099F80080EEE499F800804B464E
S214081760B8F16C0F00F07F84099D45F010050995C7
S214081770E2E4109C109D24682B1D002C0F94FFF6A5
S2140817807DAD109399F80080D6E4109BDDF824C050
S214081790109D7D4804351C684FF0780830234CF0BF
S2140817A0020C10958DF89030CDF824C000258DF8E1
S2140817B091801A900223CDE5109B109D1A6801248B
S2140817C0002304359A460B948DF8B82010958DF8AA
S2140817D08F300A9314932EAFEFE5099C8DF88F206F
S2140817E0A5063FF54EAFDDF824C01CF0100F40F0FC
S2140817F0DF82DDF824C01CF0400F00F0D982DDF847
S21408180040C0BCF900400CF1040CE51722462B46F4
S214081810CDF840C03FE799F800802B228CE4099D5C
S21408182045F00805099599F8008085E4109D8DF81F
S2140818308F20EB1D23F0070303F1080CCDF840C0FA
S214081840D3E90045CDE91645DDE9160103F036F87B
S2140818500128DDE9160140F05C830022002303F02E
S21408186095FD002840F063859DF88FA003250B950D
S214081870099D464F25F08005454B0024099500250F
S2140818800A94B8F1470FD8BF1F46032414958EE56F
S214081890DDF824C04CF0200CCDF824C099F8008060
S2140818A04AE4109CE31D23F0070303F1080510958E
S2140818B0D3E9004500234DE5109DEB1D23F00703F3
S2140818C003F1080CD3E90045CDF840C0012341E5F3
S2140818D08DF88F20B8F1000F3FF4E3AC00234FF0EB
S2140818E0010C9A46CDF82CC08DF8B8808DF88F304C
S2140818F00A93149364462EAF5FE5DDF8B4C0B7E5E7
S214081900012B00F0EC80022B0DF1DF0318D1DDF877
S21408191068C0194604F00F0022091CF8000042EAC5
S21408192005722B09087052EA03000F4614461D4636
S21408193001F1FF31EED1089DCDE91E23EC1B2DE504
S214081940E00840EA457004F00702E908303250EA39
S214081950010C1F461A7004460D4603F1FF33EFD1FB
S214081960099CCDE91C01E007394640F1C180302AC0
S21408197000F0BE80089D1F463023EC1B01F8013C92
S2140819800CE500BF445A0800585A0800385A0800A0
S214081990345A0800B8F1650F40F3AD80DDE916014A
S2140819A000220023CDF81CC003F0E6FCDDF81CC0BE
S2140819B0002800F026812C9BAA4901330CF1010C63
S2140819C00122072BCDF8B4C02C9386E8060000F356
S2140819D0ED820836259B119CA34203DB099DEC0784
S2140819E07FF5C0AD2C9B189C0133159DA444072B8E
S2140819F0CDF8B4C0356074602C9300F33E83083687
S214081A00119D6C1E002C7FF7ADAD102C2C9B964DAF
S214081A1040F3978110276246DDF83480DDF830A061
S214081A2004E00836103C102C40F38A81013310324B
S214081A30072B2D922C9386E8A000F2DD40465146EF
S214081A402BAA02F075FF00287FF432AC2D9A2C9B47
S214081A5038AEE7E70F9D0B98C0EB050ABAF1000F02
S214081A607FF72EADBAF1100F2C9B7F4D2BDD12940D
S214081A7032464FF0100B2E4661460D9C0C9D06E034
S214081A80AAF1100ABAF1100F02F1080217DD0133A5
S214081A901031072B2D912C9382E84008F0DD204664
S214081AA029462BAA02F044FF00287FF401ACAAF1CD
S214081AB0100ABAF1100F2D992C9B38AAE7DC129C55
S214081AC035468C4616460133D444072BCDF8B4C0A9
S214081AD02C9386E8200400F30F820836F0E4002DE5
S214081AE008BF0A2C80F03881303448AF07F8414DDB
S214081AF0089DEC1B52E4119C012C2C9C40F3D281CF
S214081B0001340CF101030122072C2D9337602C9425
S214081B10726000F3D8810836159DDDF860800134C0
S214081B203560189D9844072CCDF8B4802C947560C1
S214081B3000F3D5810836DDE916010022002303F0FC
S214081B401BFC119D002840F0B9806B1E013401373C
S214081B509844072C2C94CDF8B4803760736000F353
S214081B60E2800836DDF864C00134199DC44427AB0A
S214081B70072CCDF8B4C02C9486E828007FF7F1AC83
S214081B800D980C992BAA02F0D3FE00287FF490AB90
S214081B90DDF8B4C038AEE5E40D980C992BAA02F02F
S214081BA0C7FE00283FF437ADFFF782BB0D980C99A7
S214081BB02BAA02F0BDFE00287FF47AABDDF8B4C08D
S214081BC038AEBFE40D980C992BAA02F0B1FE002897
S214081BD07FF46EABDDF8B4C038AE6DE40D980C99A2
S214081BE02BAA02F0A5FE00287FF462ABDDF8B4C08D
S214081BF038AE50E40A9C38AFFFF7D0BB0223FFF795
S214081C00A9BB259B002B40F3DD81119C149DDDF8B4
S214081C1044A0AC42A8BF2C46002CBA440BDD2C9B33
S214081C20A4440133072BCDF8B4C0376074602C93F6
S214081C3000F31E830836149D24EAE4742C1B002C3B
S214081C4040F3D780102C2C9B074D40F3A3810A97AE
S214081C504FF010082F4662462546DDF834B00C9C37
S214081C6009E000BF745A0800245A08000836103DD8
S214081C70102D40F38B8101331032072B2D922C93B5
S214081C8086E88001F2DD584621462BAA02F050FE6F
S214081C9000287FF40DAB2D9A2C9B38AEE7E70D98FD
S214081CA00C992BAA02F044FE00287FF401AB9DF89D
S214081CB08FA0DDF8B4C038AEFFF7DABB6F1E002F72
S214081CC07FF750AF102FAE4D23DD43464FF0100A76
S214081CD0DDF83480DDF830B004E0103F102F06F150
S214081CE0080615DD01341033072C2D932C9486E84E
S214081CF02004F2DD404659462BAA02F019FE0028B9
S214081D007FF4D6AA103F102F2D9B2C9C38AEE9DC0A
S214081D1098460134B844072CCDF8B4802C9486E84D
S214081D20A0007FF71EAF0D980C992BAA02F000FEB4
S214081D3000287FF4BDAADDF8B4802C9C38AE11E7E5
S214081D4094460133A444072BCDF8B4C02C933560D1
S214081D5074607FF706AC13E70DF1DF0B20462946C3
S214081D600A22002303F062FB30328BF8002020465C
S214081D7029460A22002303F059FB04460D4654EA76
S214081D80050C5F460BF1FF3BE8D1089DEC1BFFF7FF
S214081D9005BB109D01232C68043510950025FFF718
S214081DA0D9BA109D2C68043510950025FFF7D2BACD
S214081DB0109D2C6804351095E51722462B46002AF8
S214081DC073F1000CBFF66CAC4FF02D0A644265EB5D
S214081DD045058DF88FA00123FFF7C0BA0D980C991A
S214081DE02BAA02F0A5FD00287FF462AADDF8B4C08D
S214081DF038AE149D259C2F44119DAC4242DB099DAC
S214081E00E9073FD41198C7EB0A05041BAC42B8BFD4
S214081E102546002D0BDD2C9BAC440133072BCDF853
S214081E20B4C0376075602C9300F34C82083625EAF8
S214081E30E575641B002C7FF795AB102C2C9B504D3A
S214081E407FF77FAF10276246DDF83480DDF830A0D4
S214081E5004E00836103C102C7FF772AF01331032BE
S214081E60072B2D922C9386E8A000F2DD40465146BB
S214081E702BAA02F05DFD00287FF41AAA2D9A2C9B47
S214081E8038AEE7E7189D2C9BAC44159D01333560AA
S214081E90189D072BCDF8B4C075602C9300F3F48119
S214081EA00836AFE7099DEA073FF52AAE01340CF17C
S214081EB001080123072CCDF8B4802C943760736092
S214081EC07FF74FAE2FE70D980C992BAA02F030FD3E
S214081ED000287FF4EDA92D9B2C9C38AE1CE60D98A7
S214081EE00C992BAA02F024FD00287FF4E1A9DDF85E
S214081EF0B4802C9C38AE1EE60D980C992BAA02F0DE
S214081F0017FD00287FF4D4A9DDF8B4C038AEFFF773
S214081F10D7BA02F0D3FC002840F0BB80099C194FC2
S214081F20194B4FF0030C24F0800409940A90CDF85E
S214081F302CC01490B8F1470FD8BF1F4664469DF8CA
S214081F408FA0FFF734BA099C640640F15081DDF88B
S214081F5040C00025BCF800400CF1040CCDF840C089
S214081F60FFF7E4B9DDF824C01CF0100F00F0468136
S214081F70109C0E9D2368043410941D60FFF7A6B8C5
S214081F80245A0800405A08003C5A08002C463D4689
S214081F900A9F94460133A444072BCDF8B4C02C936B
S214081FA0356074603FF71AAF083622E70D980C992B
S214081FB02BAA02F0BDFC00287FF47AA9DDF8B4C08D
S214081FC038AE07E52C9AB74901320CF1010C01200E
S214081FD0072ACDF8B4C02C923160706000F3F78001
S214081FE008361C462CB9119D1DB9099DE8077FF5D2
S214081FF0B9AA2C9B159D189901333560189D614424
S214082000072B2D9175602C9300F3DE8106F10802EC
S2140820106442002C40F30B81102CA34D40F34881FA
S214082020A34610260C46DDF83480DDF830A006E01E
S2140820300832ABF1100BBBF1100F40F337810133B8
S2140820401034072B2D942C9382E86000F0DD404670
S21408205051462BAA02F06CFC00287FF429A92D9C77
S2140820602C9B38AAE5E7099C09F1010944F02004ED
S214082070099493F80180FFF75FB80D980C992BAA7E
S21408208002F056FC00287FF413A9DDF8B4C038AE79
S214082090B6E40A9D28F0200A013500F0A580BAF1BA
S2140820A0470F04D10A9D002D08BF01250A95DDF8C3
S2140820B024C0DDE916234CF4807C002BCDF848C0FC
S2140820C0C0F29C81DDE91645CDE920454FF0000BAE
S2140820D0B8F1660F00F09B81B8F1460F00F0A981B1
S2140820E0BAF1450F0ABF0A9C0A9D651C022025A95D
S2140820F026AA29AB8DE821000392049302910D9835
S214082100DDE9202300F0D8FAB8F1670F074602D0B9
S214082110B8F1470F05D1DDF824C01CF0010F00F018
S2140821209C81BAF1460F07EB050400F01C81DDE937
S21408213020010022002303F01FF9002840F0058143
S214082140299B9C4206D930215A1C29921970299B32
S2140821509C42F9D8DB1BBAF1470F119300F0ED80CB
S214082160B8F1650F40F3F281B8F1660F00F06881A8
S214082170259C1494119C149DAC4200F33281DDF822
S21408218024C01CF0010F40F0AD8125EAE5732C460B
S2140821904FF06708BBF1000F40F0B280129D0B931A
S2140821A00995CDF828B09DF88FA0FFF700B90D98CF
S2140821B0402101F0D3FA20602061002800F0BF819A
S2140821C0DDF830C04023CCF81430FEF76FBF0D980A
S2140821D00C992BAA02F0ACFB00287FF469A8259C72
S2140821E0DDF8B4C038AEFDE606240A945FE7109D15
S2140821F02C68043510950025FFF798B8DDF824C03C
S2140822001CF0400F00F08780109C0E9D2368043455
S21408221010941D80FEF75ABF0D980C992BAA02F051
S21408222087FB00287FF444A82D992C9B38AADDF854
S21408223044C00133119C8C44072BCDF8B4C02C93B2
S214082240176054603FF79CAC02F10806FFF78AB99E
S214082250CDF828A0FEF7E4FE10950A9D20EAE07C5B
S2140822600446CDF82CC014959DF88FA0FFF79FB8AC
S2140822700D980C992BAA02F05BFB00287FF418A88F
S214082280DDF8B4C038AED6E40D980C992BAA02F047
S2140822904FFB00287FF40CA8259CDDF8B4C038AEA8
S2140822A0B0E500BF745A0800245A080021465C4668
S2140822B001332144072B2D912C9315605460ABDC19
S2140822C00832B4E70D980C992BAA02F031FB0028C7
S2140822D07EF4EEAF259C1199DDF8B4C00C1B38AE21
S2140822E0A5E50A9CBA46062C28BF062424EAE47C00
S2140822F00A9714971095CDF82CC0974FFFF757B844
S214082300129D4FF02D0A099500250B938DF88FA086
S2140823100A95FFF74FB8DDF840C00E9CDCF8003091
S2140823200CF1040CCDF840C01C60FEF7CFBE4FF091
S2140823302D0A8DF88FA0FFF799BA259BDC1C19DBB0
S2140823400A9C9C4216DB149314E7234602E724EA09
S214082350E47CCDF82CC00A9C10950A9014909DF841
S2140823608FA0FFF724B83B78302B00F0AD80259D72
S2140823702C44DCE6A8F10208591E00292591BABFAC
S21408238049422D232B2309298DF89C808DF89D30F2
S21408239065DC302330318DF89E308DF89F1028ABE1
S2140823A0119D27AA119C9A1A012D1992144440F3DC
S2140823B0B7800134002524EAE4731495EAE600247D
S2140823C081460A94FEF7BABE0D980C992BAA02F01D
S2140823D0AFFA00287EF46CAF259C2D992C9B38AA62
S2140823E016E6149C119D002CD4BFC4F102040124E7
S2140823F02C4424EAE4734FF06708CBE6179916983E
S21408240001F10041209021914FF02D0B60E60A9DC6
S214082410032025A926AA29AB0195009003920493C8
S21408242002910D98DDE9202300F046F90A9D07463B
S21408243077E60A9C032025A926AA29AB0194ECE78F
S214082440259D0A9C002D149563DDB4BB099DE807FD
S21408245033D4149C24EAE4739CE6299B7AE60DF1AF
S214082460AA023E4DCB1785FB0150C3EBA00000EB3C
S2140824708003A1EB43010928134601F130021A70C4
S214082480014603F1FF32ECDC00F130010DF1AB043C
S214082490C9B2944203F8011C5AD90DF19D001A4698
S2140824A001E012F8011BA24200F8011FF9D10DF550
S2140824B0907CC3EB4C03F63B72E70A9D6C1C149D9C
S2140824C02C4424EAE47365E6DDE9200100220023B3
S2140824D002F052FF00287FF44AAFC5F101052595A2
S2140824E02C4424E6149D4FF067086C1C24EAE47319
S2140824F050E6109DDDF840C02D680CF10403002D51
S21408250099F801800A9510938146BEF615AEFEF737
S21408251010BE7CB9099DE9070CD401231C4639E690
S214082520DDF824C01CF001037FF443AF149324EABB
S214082530E4732FE60A9DAC1C24EAE4732AE60D9D94
S2140825400C232B604FF0FF30FEF7BABE259B13E72F
S2140825500DF19E0324E700BF6C5A0800676666669E
S214082560024B13B1024800F005B87047000000009F
S214082570F1340800014600200246034602F058BA25
S2140825802DE9F04F03690D6983B09D42834600F339
S2140825908C80013D01F1140400F1140A54F825203A
S2140825A05AF825300132B3FBF2F8AA009146009299
S2140825B05244A1440192B8F1000F3ED0002630469E
S2140825C0224653468C4652F8047B19681FFA87FE43
S2140825D03F0C0EFB086E07FB08F606EB1E461FFAB6
S2140825E08EFECEEB000E8FB2B0B27744C0EB114031
S2140825F000EB2740BFB247EA0047914543F8047B03
S2140826004FEA20404FEA1646DDD2009A61465AF84D
S214082610023093B9019A131F9A450CD252F8043C1B
S2140826204BB9A2F1080302E01A68043B1AB99A45A6
S21408263005F1FF35F8D3CBF81050584601F070FE78
S21408264000282EDB08F101085346002254F8046BD4
S2140826501868B1B2511A87B2360C3944C6EB104026
S21408266000EB214289B241EA0241A14543F8041B26
S2140826704FEA2242EAD25AF825200AEB850382B9A5
S2140826801A1F92450BD253F8042C42B9083B02E0B5
S2140826901A68043B1AB99A4505F1FF35F8D3CBF802
S2140826A01050404603B0BDE8F08F002003B0BDE8E8
S2140826B0F08F00BF000000002DE9F04F016C9BB0C2
S2140826C0044692469B46279D41B1436C01229A4098
S2140826D04B608A6001F02EFC00232364BBF1000FD8
S2140826E0D94633DB00232B60A54B1A4609EA0303B9
S2140826F0934214D0504659460022002302F03CFE6E
S214082700804648B3269E289D01233360002D00F09E
S214082710CA809C48286001381BB0BDE8F08F269D0B
S21408272042F20F732B60BAF1000F00F0A5809648AE
S214082730289E002EF0D0C378002B00F0B68000F15B
S2140827400803289D2B601BB0BDE8F08F01232BF0F3
S21408275000492B60CB46C7E719AA18AB8DE80C00D2
S214082760204652465B4601F06BFE5FEA19550A9012
S21408277040F08B80189F199D6FF482633D449D42FC
S214082780C0F295821F3305F212425B1B09FA03F367
S2140827902AFA02F243EA020002F010FB0126013D83
S2140827A0B846A1F1F87116960022784B02F0C8F9DF
S2140827B06DA3D3E9002302F077FB6DA3D3E90023CA
S2140827C002F0C0F9064628460F4602F007FB6AA341
S2140827D0D3E9002302F068FB02460B46304639462A
S2140827E002F0B0F906460F4602F0F8FD39460790A3
S2140827F000223046002302F0C9FD002840F0298256
S214082800079E162E00F222826149524601EBC60147
S2140828105B46D1E9000102F0D7FD002800F04C82A3
S214082820013E079600260E96C5EB0805013D06955F
S21408283000F1268200250895079E002EC0F2178212
S214082840069D0D963544002606950C96249D092D62
S2140828502DD8052DC4BF043D2495249EC8BF002549
S214082860A6F10203D8BF0125032B22D8DFE813F010
S214082870B7039E02C0039A04464A434BC9F31300A3
S21408288000280CBF1046184652E7CBF3130343F054
S2140828907F51CDF858805046A5F2FF3541F44011D7
S2140828A0DDF8608080E73C4836E7C31C49E700252A
S2140828B02495002565642946204601F015FB4FF04F
S2140828C0FF390126099025952064CDF83C900B9693
S2140828D0199B002BC0F2D280079E0E2E00F3CE80E6
S2140828E02B4B03EBC603D3E90001CDE90401259978
S2140828F00029C0F28083DDE904235946504602F0D9
S214082900FDFB02F06BFD054602F068FADDE90423DC
S21408291002F0CAFA02460B465046594602F010F92B
S214082920099A05F13003B9F1010F06460F461370F0
S21408293002F1010B64D00022184B02F0B5FA00220F
S214082940002306460F4602F017FD002840F0818057
S214082950DDF82480099DC844DDE904AB05F10209C9
S214082960039428E0AFF3008061436F63A787D23FE4
S214082970B3C8608B288AC63FFB799F501344D33F61
S2140829800000F07F755A0800945A08000000F83FC7
S214082990A85A0800885A0800745A080000002440FC
S2140829A002F082FA0022002306460F4602F0E4FCF4
S2140829B0002840F0C18352465B463046394602F04E
S2140829C09DFB02F00BFD054602F008FA52465B46F0
S2140829D002F06AFA02460B463046394602F0B0F86C
S2140829E005F1300EC14509F801EC4C4606460F467F
S2140829F04FF00002A74B09F10109D1D1A346039C69
S214082A0032463B463046394602F09CF806460F46A4
S214082A103246DDE904013B4602F0B8FC40B9DDE980
S214082A20040132463B4602F0A7FC90B1EB0710D5EE
S214082A301BF8015C099A05E09A4200F0298413F80D
S214082A40015C9B46392D0BF1FF33F5D06A1CD2B2D8
S214082A501A7020460A9901F06DFA079E269D731C87
S214082A60289E00228BF800202B60002E00F025837D
S214082A700998C6F800B01BB0BDE8F08F0B9D002D76
S214082A8000F00381249E012E40F3DC820C9E09F19F
S214082A90FF37BE42C0F28983F71BB9F1000FC0F2B8
S214082AA08784089D4B46089E20461E440896069E28
S214082AB001211E44069601F0DFFA064665B106981F
S214082AC0002809DD03460899AB42A8BF2B46C91A59
S214082AD0C01A0891ED1A06900C9A002A1DDD0B9B69
S214082AE0002B00F05883002F11DD31463A46204669
S214082AF001F06AFB064631460A9A204601F0C6FAF5
S214082B000A998046204601F015FACDF82880DDF8A7
S214082B1030E0BEEB070240F08F822046012101F02C
S214082B20ABFA80460D98002805DD414620460D9AEA
S214082B3001F04AFB80462499012940F3C182002708
S214082B400D98002840F0AF820120069B034413F03E
S214082B501F0300F0A180C3F12002042A40F3B784C3
S214082B600899069AC3F11C0319441A4408911D448F
S214082B7006920899002905DD0A99089A204601F068
S214082B8071FB0A90069A002A04DD4146204601F0A9
S214082B9069FB80460E9B002B40F06A82B9F1000F55
S214082BA040F3A6820B98002840F088800B9D0A9F69
S214082BB0DDF824B006E0394620460A22002301F054
S214082BC0C3F9074638464146FFF7DAFC30300BF8BB
S214082BD005000135A945EEDCDDF824B082460A97E3
S214082BE0B9F1010FACBFCB440BF1010B00250A99D4
S214082BF00122204601F036FB41460A9001F090FB80
S214082C00002840F309831BF8012C099905E099422E
S214082C1000F08B8213F8012C9B46392A0BF1FF3300
S214082C20F5D001321A704146204601F083F9002E8D
S214082C303FF40FAF2DB1B54203D02946204601F028
S214082C4079F93146204601F075F902E701260E9615
S214082C50EAE5079802F0C2F832463B4602F08CFBDB
S214082C6000287FF4CDAD079E013E0796C8E5079E6F
S214082C70089DAD1B0895754200260C950D96E5E552
S214082C806D42002608950696D6E50C9F089D0B9E75
S214082C9014E700BF000024401C23DDF820E0069857
S214082CA09E441844CDF820E01D44069061E7A748E6
S214082CB0401B0AFA00F06FE50E90B5E5002D05DD1D
S214082CC031462A46204601F0CDFA0646002F40F047
S214082CD0E9823746099D09984D4408950AF001058A
S214082CE00B95DDF82890451C0AE001F02DF93946C9
S214082CF006460A222046002301F026F90746013533
S214082D0041464846FFF73CFC31468346484601F0B4
S214082D1007FB414603903A46204601F025FBC26869
S214082D20691E03460BF1300A0691002A40F093818B
S214082D3019464846029301F0F3FA029B02461946E2
S214082D402046029201F0F6F8029A2AB9249B1BB98B
S214082D500B98002800F09383039B002BC0F2348264
S214082D6005D1249818B90B99002900F02D82002A5D
S214082D7000F3AC82DDF820E005F801AC7545AB46FB
S214082D8000F0B48249460A220023204601F0DCF807
S214082D90BE428146314620464FF00A024FF00003F5
S214082DA0A3D101F0D1F806460746A8E700260B96F9
S214082DB0079EDDF894E0B6440EF10109B9F1000F5C
S214082DC0CDF83CE04E4640F350810021172E616452
S214082DD00AD9012204235B0003F11400B04211460D
S214082DE002F10102F7D96164204601F07DF80E2E43
S214082DF0099020643FF66CAD002D3FF469AD079D41
S214082E00CDE912AB002D40F31C82514B05F00F02A2
S214082E1003EBC2032D11D3E90067EB0640F1CD8121
S214082E204C4B50465946D3E9082302F067F9CDE9DA
S214082E30100105F00F054FF003088DB1DFF814A157
S214082E4030463946EE0705D5DAE9002308F10108C9
S214082E5002F02AF86D100AF1080AF3D106460F4662
S214082E60DDE9100132463B4602F048F982468B46B9
S214082E700E9D45B1504659460022374B02F086FA59
S214082E80002840F0AA82404601F0A8FF52465B465A
S214082E9002F00AF80022314B01F054FE0646A1F172
S214082EA05077B9F1000F00F05A81079DC84617956C
S214082EB00B9D002D00F02382254B002003EBC80352
S214082EC053E90223264902F019F932463B4601F037
S214082ED037FECDE910015946504602F07FFA0546FE
S214082EE001F07CFF02460B465046594601F028FE84
S214082EF03035099ECDE90401DDE90423DDE910013A
S214082F00EDB2357006F1010B02F05EFA002840F0CB
S214082F10AB82DDE9042300200F4901F011FE0246CA
S214082F200B46DDE9100102F04FFA002840F0A282B5
S214082F30B8F1010F40F38181B044CDF85090A24615
S214082F40C146DDE90467DDE9104519E0EEFBFFFF41
S214082F50A85A0800705B08000000F03F00001C40FC
S214082F600000E03F0020A84901F0EAFD22462B4673
S214082F7002F00CFA002840F07B82CB4500F05A811C
S214082F80204629460022A14B01F08EFF00229F4BC7
S214082F9004460D463046394601F086FF0F4606467B
S214082FA002F01CFA804601F019FF02460B4630462E
S214082FB0394601F0C5FD08F130085FFA88F8224660
S214082FC02B460BF8018B06460F4602F0DFF9324611
S214082FD03B460028C6D0179E5446079639E5002675
S214082FE00B96259800283CDD06460F908146ECE6B1
S214082FF001260B96F5E7B9F1000F3FF77CAC40F0D9
S214083000C680DDE904010022814B01F04DFF5246DF
S2140830105B4602F0CFF9C8464E4600287CD0259D70
S214083020DDF824B0ED4307954146204600F082FFC0
S214083030002E7FF406AE0CE50A99204601F0C4F887
S2140830400A906AE5169D002D00F0B88103F2334316
S2140830500C9F089D27E50146204600F06BFF0122DD
S2140830607AE6012625960F96B14600216164BBE6EE
S2140830700A98414601F054F90028BFF68FADDDF8EE
S2140830801CE00A990EF1FF3E20460A220023CDF8DE
S2140830901CE000F059FF0A900B98002840F00982BF
S2140830A0DDF83C907AE5D8F8103008EB8303186909
S2140830B000F094FFC0F1200047E50998FFF72CBB05
S2140830C0BAF1000F7FF43BADCBF31303002B40F0AF
S2140830D07C812BF000473F0D3F05002F3FF430ADB5
S2140830E0089A069B0132013308920693012727E5C2
S2140830F0249902297FF756ADB9F1000F8FD14146C2
S2140831004B460522204600F01FFF804641460A9897
S21408311001F006F9002882DD079D31230135079561
S214083120099D2B7005F1010B7EE707980999312355
S214083130013007900B7076E5A346039C89E4404669
S21408314001F04CFE02460B465046594601F0ACFECE
S2140831500022304B01F0F6FC0646A1F150775046A7
S214083160594600222A4B01F0EBFC32463B46824683
S2140831708B4602F029F9002840F0BD80324607F158
S21408318000435046594602F001F9002855D04FF042
S2140831900008464643E70A990C9A204601F014F8B8
S2140831A00A90BAE401260B9602E60C9D0D9E7B1B40
S2140831B01E440C970D9600276FE4DDE912014FF0C8
S2140831C00208CDE9100138E6002ACDF82890D9463D
S2140831D011DD0A990122204601F044F841460A907A
S2140831E001F09EF8002840F35D81BAF1390F00F02F
S2140831F01B8109F1310A069B354683F800A003F1C6
S214083200010B3E460FE500BF0000F03F00002440DB
S2140832100000144000001C4003D11AF0010F7FF490
S214083220F2AC5B4613F8012C9B46302A03F1FF33B9
S214083230F8D0F8E4DDF850905446DDE912ABFFF715
S21408324047BB079E7542002D00F0C280A34B05F0D1
S2140832500F0203EBC203D3E90023DDE9120101F0F4
S21408326023FE2D1182468B4600F02E819C4E4FF091
S2140832700208EA0705D5D6E9002308F1010801F097
S21408328013FE6D1006F10806F3D182468B46EFE56D
S214083290079E099D30222A700136312207961A7039
S2140832A0FFF7D7BB7168204600F01EFE3369054657
S2140832B09A1C920006F10C010C3000F035FD2046F1
S2140832C02946012200F0CEFF074603E5BAF1390F7A
S2140832D0CDF8289000F0A880069D0AF101032B700F
S2140832E03546069E06F1010B3E469CE43546CDF86B
S2140832F028903E467BE44FF0000846460CE77749A0
S21408330008F1FF3501EBC50132463B46D1E900011D
S214083310109501F0C9FDCDE914015946504602F052
S2140833205DF8054601F05AFD02460B4650465946DA
S21408333001F006FCDDF824E03035B8F1010F06464A
S2140833400F468EF800500EF1010B1ED0099D6B1E1D
S21408335003EB080A0022634B01F0A6FD0F4606465B
S21408336002F03CF8804601F039FD08F130080246C4
S2140833700B463046394601F0E3FB05F8018F554504
S214083380E8D1109D06460F46AB440022564BDDE9B1
S214083390140101F0D7FB32463B4601F0F7FF002840
S2140833A04DD0179E099A07961BF8015CFFF74ABB93
S2140833B0089E0023C9EB0605FFF775BB189B0C9FF4
S2140833C0C3F13603089DFFF76EBB5746FFF7B8BB39
S2140833D0DDE912AB4FF002084AE5B9F1000F3FF4F9
S2140833E0AEAE0F9E002E7FF728AF00223D4B50460C
S2140833F0594601F059FD824608F101008B4601F056
S214083400EDFC02460B465046594601F04DFD00229B
S214083410364B01F097FB079D0646013DA1F1507714
S2140834201795DDF83C8043E53546069B069E39220F
S214083430327003F1010B3E460999FFF7EEBBDDE952
S21408344014230020284901F07BFB32463B4601F056
S214083450BBFF00283FF4F1AE5B4613F8012C9B46F1
S214083460302A03F1FF33F8D0179D0795FFF7F1BA16
S21408347045465446179E099A0796FFF7E3BABAF1E7
S214083480390FCDF82890CFD0039B3546002B069EE3
S214083490C8BF0BF1310A86F800A006F1010B3E46BC
S2140834A0FFF7C1BB7FF4A7AE1AF0010F3FF4A3AE37
S2140834B09BE6314620460A220023DDF83C9000F0C1
S2140834C043FD0646FFF76ABB4FF00208D0E43FF418
S2140834D050ABC3F13C03FFF7E0BB00BFA85A080097
S2140834E0705B0800000024400000E03F00001C401D
S2140834F038B5094D094C641BA41018BF05EB8405A4
S21408350005D0013C55F8043D9847002CF9D1BDE894
S214083510384002F051BB00BFC45B0800C85B080017
S214083520F8B5234D0F46044600F0DAFCAB685E6833
S21408353026F00306F11B01F6EF7121F47F6121F0F6
S2140835400F01A1F58057B7F5805F07DB20460021FD
S21408355001F0DCF9AB683344984204D0204600F00A
S214083560C1FC0020F8BD2046794201F0CFF90130B1
S2140835700DD0104BAA681968F61B46F001062046BF
S214083580C91B5660196000F0ADFC0120F8BD204646
S214083590002101F0BBF9AB68C21A0F2ADEDD064D22
S2140835A004492D6842F00102401B5A600860D5E7BE
S2140835B0DC050720B00A0720E80907202DE9F041B6
S2140835C00D460646002955D000F08AFC55F8041C1E
S2140835D0DFF870C1A5F1080421F00103E218DCF851
S2140835E008005768904227F0030768D011F00101D9
S2140835F0576032D00021D0194068C00706D43B4433
S214083600906800294DD0D268C260906043F00102ED
S2140836106260E350E1B9B3F5007F2DD35A0A042A55
S21408362069D89809383041000CEB810CDCF8082082
S2140836304449624565D0516821F003018B4202D2A5
S21408364092689445F7D1D368E360A2609C60D46022
S2140836503046BDE8F04100F045BC55F8085C0CF172
S2140836600808641BA0682B44404542D0E568C5603E
S214083670A860C0E7BDE8F081DB089A1001209040FA
S214083680DCF804100CEBC3039A680143A260E360FD
S214083690CCF8041030469C60D460BDE8F04100F0D9
S2140836A021BC294DA842AED143F00102CCF8144003
S2140836B0CCF81040E060A0606260E350C8E71F44A2
S2140836C0CB0707D455F8081C641AE368A2680F44A9
S2140836D0D3609A601D4B47F001021B6862609F42E8
S2140836E0CCF80840B4D31A4B30461968FFF718FFD1
S2140836F0AEE701217FE7142A0BD802F15B004100F0
S21408370092E780100125854048681346284348609C
S2140837109AE7542A03D8180B6E30410084E7B2F5AE
S214083720AA7F03D8D80B773041007DE740F2545182
S2140837308A4203D8980C7C30410075E7FC217E202D
S21408374072E700BFDC050720E4050720E409072028
S214083750AC0A072000487047A40507202DE9F04F5B
S21408376001F10B05162D83B0064627D935F0070557
S21408377027D4A94225D8304600F0B2FBB5F5FC7F21
S21408378026D2C14F4FEAD50C07EBCC03DC689C4227
S21408379000F0D2816368E26823F003032344586884
S2140837A0A16840F00105CA60304691605D6000F08F
S2140837B099FB0834204603B0BDE8F08F1025A942CF
S2140837C0D9D900240C232046336003B0BDE8F08F17
S2140837D05FEA552C00F08980BCF1040F00F2608186
S2140837E04FEA951C0CF1380C4FEA4C01A64F07EB34
S2140837F08101CC68A14205D10CE0002B79DAE46897
S214083800A14207D0626822F00302531B0F2BF4DD97
S2140838100CF1FF3C0CF1010C9B4B3C6903F1080EC4
S214083820744500F07E81616821F003014A1B0F2A67
S21408383000F36481002AC3F814E0C3F810E069DADC
S214083840B1F5007F80F03A81C9088A104FF0010868
S21408385008FA02F803EBC1015A68886848EA0202C7
S214083860A060E1605A608C60C4604FEAAC03012037
S214083870984090425BD8024206D12CF0030C4000D8
S21408388002420CF1040CFAD007EBCC084446E14699
S214083890E3689C4207D146E1002A80F25781DB683C
S2140838A09C4200F04081596821F003014A1B0F2A08
S2140838B0F2DD1C4654F808CFD96845F0010942F0F5
S2140838C001081D44C3F804903046CCF80C10C1F823
S2140838D008C07D613D61C5F80CE0C5F808E0C5F88C
S2140838E00480AA5000F0FEFA64E77E214FF03F0CF1
S2140838F07CE722445068E368A16840F00105CB6085
S21408390030469960556000F0EDFA0834204603B05A
S214083910BDE8F08F21444B68304643F001034B6006
S21408392000F0E0FA0834204603B0BDE8F08FBC6823
S214083930636823F00309A94504D3C5EB09030F2BD5
S21408394000F39180514B524A1968136805EB010A37
S214083950013304EB090B00F061810AF5805A0AF17D
S2140839600F0A2AF47F6A2AF00F0A30465146019257
S21408397000F0CCFFB0F1FF3F8046019A00F00181CD
S214083980834500F2FB80DFF814C1C345DCF800303D
S2140839905344CCF8003000F04A8112683C490132A2
S2140839A01BBFCBEB080B5B44C1F80080CCF800309B
S2140839B018F0070300F01481C3F10802C3F580531A
S2140839C090440833C244CAF30B0ACAEB030A5146AA
S2140839D03046CDF804C000F099FF431CDDF804C05B
S2140839E000F03581C8EB0002524442F00102DCF8D0
S2140839F00030BC425344C7F80880CCF80030C8F8FA
S214083A000420DFF898A015D0B9F10F0F40F2EB802C
S214083A106168A9F10C0222F0070201F0010142EAEE
S214083A20010E0520A1180F2AC4F804E04860886033
S214083A3000F21181174ABC6811688B4288BF136070
S214083A40154A11688B4288BF1360626822F0030229
S214083A509542C5EB020301D80F2B04DC304600F074
S214083A6041FA0024A6E645F0010243F00103254486
S214083A7062603046BD606B6000F034FA0834204659
S214083A8003B0BDE8F08F00BFDC050720AC0A0720AE
S214083A90E8090720A80A0720A40A0720B00A072072
S214083AA0BCF1140F61D9BCF1540F00F28F804FEAB5
S214083AB0153C0CF16E0C4FEA4C0197E64B0A042BAA
S214083AC058D9142B00F2AD8003F15B02500007EBC7
S214083AD080008368DFF8B881834200F08A805A68DD
S214083AE022F00302914202D29B689842F7D1D96825
S214083AF07A68E160A3608C60DC60B6E645F0010792
S214083B0042F001012544676030465D611D61C5F8D5
S214083B100CE0C5F808E06960AA50083400F0E2F93D
S214083B2048E65A68A1E609F1010919F0030F04F1FD
S214083B3008047FF4ADAE2DE004F108036469A342DF
S214083B4008BF0CF1020C3FF467AE23E61944486838
S214083B501C4654F8082FDB6840F001054D603046D7
S214083B60D3609A6000F0BEF924E60CF15B0C4FEACD
S214083B704C013BE68A0938325000A8E7BC423FF4BD
S214083B8002AFBC68626822F0030261E7D8F80080DA
S214083B9098457AD11CF0030FA8F108030CF1FF3CF6
S214083BA0F4D17B6823EA00037B60400098423FF626
S214083BB0BEAE00283FF4BBAE0342CC467FF464AEEC
S214083BC0400003420CF1040CFAD05DE6BCF5AA7F6F
S214083BD019D84FEAD53C0CF1770C4FEA4C0105E6AC
S214083BE04FF48053EEE60123C8F80430444600221A
S214083BF02EE7921001209040D8F804201946024378
S214083C00C8F8042075E740F254539C451BD84FEA81
S214083C10954C0CF17C0C4FEA4C01E7E50AF1100ACA
S214083C20A3E6542B1FD80A0B6E3250004FE7CBF38F
S214083C300B0100297FF4B1AE0AEB0901BA6841F01E
S214083C4001015160F6E6FC214FF07E0CCEE501221C
S214083C504FF0000ACBE604F108013046FFF7AEFC49
S214083C60DAF80030E6E6B3F5AA7F03D8CA0B77324F
S214083C7050002CE740F25452934203D88A0C7C3208
S214083C80500024E7FC207E2221E77B688DE700BFF2
S214083C90DC050720830770B4C9B240D0541E2AB387
S214083CA003788B4223D0431C04E0FCB10578144605
S214083CB08D421CD013F0030F184604F1FF3203F1AF
S214083CC00103F2D1032C14D8651E54B303788B4233
S214083CD00DD0421C002302E004788C4207D0AB4289
S214083CE0104603F1010302F10102F5D1002070BC71
S214083CF0704741EA0126034646EA06461A68184609
S214083D007240A2F1013525EA020212F0803F03F163
S214083D100403D9D1043C032C1846EFD8D4E714463C
S214083D20D0E72046E3E700BF844641EA000313F0E5
S214083D30030349D1403A23D30B6803604B684360BA
S214083D408B688360CB68C3600B6903614B6943610A
S214083D508B698361CB69C3610B6A03624B6A4362F2
S214083D608B6A8362CB6AC3620B6B03634B6B4363DA
S214083D708B6B8363CB6BC36340304031403ADBD2F6
S214083D8030320BD30B6803604B6843608B688360E4
S214083D90CB68C36010301031103AF3D20C3205D31A
S214083DA051F8043B40F8043B043AF9D2043208D0F0
S214083DB0D2071CBF11F8013B00F8013B01D30B8862
S214083DC003806046704700BF082A13D38B07B1D01C
S214083DD010F00303AED0C3F10403D21ADB071CBFEE
S214083DE011F8013B00F8013BA4D331F8023B20F858
S214083DF0023B9FE7043AD9D3013A11F8013B00F891
S214083E00013BF9D20B7803704B7843708B7883703C
S214083E10604670478842F0B410D98C18A0420DD27C
S214083E208518531E42B121462A4611F8014D013B1A
S214083E3002F8014D5C1CF8D1F0BC70470F2A44D933
S214083E4040EA01039B0744D1A2F110073F0900EBA3
S214083E50071610360C4603462568103343F8105CE0
S214083E606568103443F80C5C54F8085C43F8085C42
S214083E7054F8045C43F8045CB342EDD17B1C02F0B2
S214083E800F0C1B01BCF1030F1944034423D90E463B
S214083E901D46644656F8047B043C032C45F8047B10
S214083EA0F8D8ACF1040424F00304043402F0030246
S214083EB023442144002ABFD01A4411F8014B03F8C2
S214083EC0014B9342F9D1F0BC70470346002AF3D160
S214083ED0B2E70346F0E76246002AEDD1ACE700BF3A
S214083EE0704700BF704700BFC26C70B505460C46E9
S214083EF04AB152F8240080B1016842F82410002222
S214083F000261C26070BD2122042100F0E5FDE8646C
S214083F1002460028EDD1002070BD012101FA04F602
S214083F20721D2846920000F0D7FD0028F3D04460A2
S214083F308660E4E731B1C36C4A6853F8220008602B
S214083F4043F82210704700BF2DE9F0430F6983B08D
S214083F508846814601F1140500242E680134B1B262
S214083F60360C02FB013302FB06F699B206EB134346
S214083F7001EB0341A74245F8041B4FEA1343ECDC68
S214083F804BB1D8F80820974209DA08EB87020137C0
S214083F905361C8F81070404603B0BDE8F083D8F8FF
S214083FA00410484601310193FFF79EFFD8F8102009
S214083FB008F10C010232044692000C30FFF7B4FEFA
S214083FC0D9F84C20D8F80410019B52F82100C8F8FC
S214083FD0000042F82180A046D7E700BF030C1B0468
S214083FE0B3B90004102310F07F4F04BF0002083353
S214083FF010F0704F04BF0001043310F0404F04BFA8
S21408400080000233002807DB420003D420207047D4
S2140840100023E8E7581C704718467047036813F0F3
S214084020070207D0D90720D49A0720D49B08036034
S2140840300220704799B209B91B0C102213F0FF0F23
S21408404004BF1B0A0832190704BF1B090432990764
S21408405004BF9B080232D90704D45B0801D120208C
S21408406070470132036010467047002070475B08AF
S21408407003600120704700BF10B50C460121FFF70A
S21408408033FF01224461026110BD00BF2DE9F04FE5
S2140840900D69D2F8109085B04D450C46924604DA64
S2140840A02A4654464D468A469146A36805EB0907B4
S2140840B061689F42C8BF0131FFF716FF00F114067A
S2140840C006EB87084645019005D23346002043F89C
S2140840D0040B9845FBD80AF1140C0CEB8909143428
S2140840E0CC45009404EB85055BD2CDF80880039791
S2140840F0C8465CF8043B9CB224B3009A33464FF09B
S214084100000900E00B4652F8047B19681FFA87FB83
S2140841101FFA81FA380C090C04FB0BAA04FB0010E2
S214084120D14400EB19401FFA89F949EA00471946B5
S21408413095424FEA104941F8047BE3D8C3F8049047
S2140841405CF8043C5FEA134924D0D6F800A0009B2C
S214084150504631464FF0000B00E011461A88000C16
S21408416009FB02001FFA8AFA83444AEA0B400A4609
S21408417042F8040B53F8047B48684FEA174A84B29F
S21408418009FB0A4A9D420AEB1B4A4FEA1A4BE4D837
S214084190C1F804A0E04506F10406AAD8DDF80880B0
S2140841A0039F002F0ADD58F8043CA8F104081BB149
S2140841B004E058F8043D0BB9013FFAD1019B1846B4
S2140841C01F6105B0BDE8F08F12F003032DE9F0413A
S2140841D0144607460E462CD1A4101CD0BD6C002DE4
S2140841E030D04FF0000804E0641014D02868A8B156
S2140841F00546E307F8D5384631462A46FFF746FF10
S214084200AEB17268FB6C641053F82210316043F844
S21408421022600646EAD13046BDE8F081384629468F
S2140842202A46FFF733FF2860C0F80080E0E7064616
S214084230DAE70B4A013B52F823200023FFF784FEF7
S2140842400646C9E701213846FFF74EFE40F27121BF
S21408425001220023416102610546B8640360C0E795
S214084260985B08002DE9F84F0B694FEA621A0AEBCB
S21408427003098B6809F101069E420F46934680465D
S214084280496804DD5B009E4201F10101FADC404604
S214084290FFF72AFEBAF1000F00F1140409DD002327
S2140842A01A4625460133534545F8042BFAD104EB44
S2140842B083043A6907F114031BF01F0B03EB820C07
S2140842C021D0CBF1200A002200E02C4619682546AA
S2140842D001FA0BF10A4345F8042B53F8042B6345FF
S2140842E022FA0AF2F1D362600AB109F10206D8F896
S2140842F04C307A68013E53F822100661396043F85C
S2140843002270BDE8F88F53F8042B9C4544F8042B1C
S214084310EDD953F8042B9C4544F8042BF3D8E6E76C
S21408432002690B6910B4D21A15D19B0014301431E7
S2140843301944034401E0984211D253F8042D51F869
S214084340044DA242F7D0944294BF01204FF0FF30AC
S2140843505DF8044B704710465DF8044B7047002024
S2140843605DF8044B704700BF2DE9F0470D4604463C
S214084370114628461646FFF7D3FF071E56D04FDBD2
S2140843804FF0000969682046FFF7AEFD2F693269CD
S21408439014351436C0F80C9000F1140305EB870C9E
S2140843A006EB8208002155F8044B56F8042B1FFA32
S2140843B084FA8A441FFA82F9110CC1EB1441C9EB3E
S2140843C00A0201EB224192B242EA0142B04543F8A2
S2140843D0042B4FEA21412C46E5D8AC45984615D91A
S2140843E054F8046BB2B21144360C06EB214689B277
S2140843F041EA0642A44543F8042B4FEA2641EFD883
S214084400EB43634423F0030304334344043B22B9D9
S21408441053F8042D013F002AFAD00761BDE8F0875B
S2140844202B464FF0010935461E46ABE7204639466F
S214084430FFF75AFD012347610361BDE8F08700BF17
S2140844402DE9F043012183B01D46C3F30A561446EE
S2140844500A9FFFF749FDC5F3130380460EB143F4E0
S2140844608013019324B302A840F8084D6846FFF766
S214084470D5FD002835D19DE80C00C8F81420002B7F
S2140844800CBF01240224C8F81830C8F81040DEB95A
S21408449008EB8403A0F2324038601869FFF79EFDE7
S2140844A00B9BC0EB44101860404603B0BDE8F08391
S2140844B001A8FFF7B3FD019B01242030C8F814308B
S2140844C0C8F81040002EE3D0A6F2334909EB0003E3
S2140844D03B600B9BC0F135001860404603B0BDE852
S2140844E0F083019BC0F1200103FA01F1C340009A52
S2140844F001930A43C8F81420C1E700BF2DE9F04F1E
S2140845000C4683B090468146002900F0BA80FFF733
S214084510E7FC08F10B0654F8043C162E23F00305B6
S214084520A4F108074BD810210E46B0454CD88D424A
S21408453051DADFF884B37819DBF808E0864500F02E
S214084540A680426822F0010C8444DCF804C01CF003
S214084550010F54D000221046DB076FD454F8083CED
S214084560C3EB070ADAF8043023F003032B440028C9
S21408457062D0704500F0E98002EB030E8E455BDBE7
S214084580C3688268D046D3609A6058F8081FDAF87D
S2140845900C302A1F242ACB60996000F22381132A44
S2140845A040F2B08023681B2ACAF808306368CAF845
S2140845B00C3000F22B8108340AF11003A3E026F031
S2140845C00706002E3146B0DA0C230020C9F8003062
S2140845D003B0BDE8F08FA046AA1B0F2A03F001031C
S2140845E01AD82B437B603D446B6843F001036B602D
S2140845F04846FFF777FC404603B0BDE8F08F22F048
S214084600030202EB050C8C45A6DBC2688168A0464F
S214084610CA6065469160DFE7B919334342F0010086
S2140846207B600A4448605368083143F001035360CE
S2140846304846FEF7C3FFDBE78B4233DA4146484677
S214084640FFF78CF880460028D2D054F8043CA0F136
S214084650080123F001023A44914200F0BC802A1F68
S214084660242A6ED8132A42D80346224611681960AF
S2140846705168596092689A6021464846FEF79EFF40
S214084680B6E7114603B0BDE8F04FFFF767B8DEF8A7
S214084690042006F1100C22F00302501960453DDA9A
S2140846A0704659E7D04658F8080FDAF80C102A1F53
S2140846B0242AC160886000F2A080132A40F29B80FA
S2140846C021681B2ACAF808106168CAF80C1000F29C
S2140846D0B28008340AF1100221681D46116061682C
S2140846E057465160A3689360DAF8043074E7236885
S2140846F01B2A03606368436062D800F1080304F16C
S2140847000802B3E74346226875461A606268574649
S2140847105A60A2689A60DAF804305DE7831B37446B
S21408472043F00103CBF808707B6054F8043C484615
S21408473003F001031E4344F8046CFFF7D3FB20463E
S2140847405AE72146FFF766FB96E702EB030C06F1ED
S21408475010029445FFF670AF574657F8081FDAF868
S2140847600C302A1F242ACB60996000F28680132A10
S21408477077D923681B2ACAF808306368CAF80C3049
S21408478000F2848008340AF1100322681A6062680E
S2140847905A60A2689A60C6EB0C020AEB060342F05F
S2140847A00102CBF808305A60DAF80430484603F0BD
S2140847B001031E43CAF80460FFF794FB38461BE75C
S2140847C0A368242A8360E368C3602BD000F1100333
S2140847D004F110024AE750F8042CA04622F003021F
S2140847E01544F9E62146404675465746FFF712FB3C
S2140847F0DAF80430F0E642466EE7214640461D46A3
S2140848005746FFF707FBDAF80430E5E6A368242ADC
S214084810CAF81030E368CAF8143018D010340AF111
S214084820180370E7226900F118030261616904F150
S214084830180241611AE7A168242ACAF81010E1682C
S214084840CAF814100FD010340AF1180244E7226987
S2140848500AF12003CAF8182062691834CAF81C201E
S21408486051E73B4691E721690AF12002CAF8181079
S21408487061691834CAF81C102EE721463846CDF868
S21408488004C0FFF7C7FADDF804C084E7A368242A43
S214084890CAF81030E368CAF8143003D010340AF1A6
S2140848A0180372E722690AF12003CAF81820626919
S2140848B01834CAF81C2068E7DC05072031F00043E6
S2140848C010B408D00F4AA3F5801494420AD80420DE
S2140848D05DF8044B704700280CBF022003205DF8E3
S2140848E0044B7047B3F5801F01D20320F7E7064A4A
S2140848F0934201D00020F2E7D0F1010038BF002033
S214084900EDE700BFFFFFDF7F0000F07F38B5074CFC
S2140849100023054608462360FCF7B2FA431C00D07D
S21408492038BD2368002BFBD02B6038BDD80A07207B
S2140849302DE9F04F946883B0924680460D46166877
S214084940002C6FD04FF0000B08688B685C46002C74
S21408495043D09C421F4645D3AB8913F4906F44D08E
S2140849606F69296907EB470707EBD777C1EB00099B
S214084970621C7F104A44974234BF17463A465B0586
S21408498035D511464046FEF7E9FE002839D0296994
S2140849904A460190FFF7C8F9AA89019B22F490625B
S2140849A042F08002AA81C9EB070203EB09006F6197
S2140849B02B612860AA602746A1464A465946FFF753
S2140849C029FADAF80820AB682868DB1B4844141B69
S2140849D0AB602860CAF8084024B3D6F800B07468FC
S2140849E00836B4E72746A146E7E7B946E5E740466E
S2140849F0FFF784FD03460028D5D140462969FEF70F
S214084A00DDFDAA890C23C8F8003042F040020023D6
S214084A104FF0FF30AA81CAF80830CAF8043003B04D
S214084A20BDE8F08F2046CAF8044003B0BDE8F08F12
S214084A30F0B5274C85B026680746D6F84841002CBE
S214084A4040D065681F2D1EDD224818B94FF0FF308C
S214084A5005B0F0BD4FF4C870039102920193AFF30E
S214084A60008003990446029A019B0028EED0D6F8E7
S214084A7048510020256060600546C6F84841C4F8DD
S214084A808801C4F88C013FB96B1C002002356360AE
S214084A9044F8251005B0F0BD0126AE4004EB8500AD
S214084AA0C0F88820D4F88821022F42EA0602C4F803
S214084AB08821C0F80831E7D1D4F88C311E43C4F8F1
S214084AC08C61E1E706F5A674C6F84841B9E700BF69
S214084AD0205A08000000000010B502FB01F1FEF79E
S214084AE03DFE044668B150F8042C22F00302043A4E
S214084AF0242A18D8132A06D8034600221A605A60B1
S214084B009A60204610BD00231B2A036043600FD915
S214084B10242A8360C36005BF0361436100F1100364
S214084B2000F11803E9E70021FCF70AFA204610BD51
S214084B3000F10803E1E700BF81F0004102E000BF92
S214084B4083F0004330B54FEA41044FEA430594EA40
S214084B50050F08BF90EA020F1FBF54EA000C55EA7B
S214084B60020C7FEA645C7FEA655C00F0E2804FEA4C
S214084B705454D4EB5555B8BF6D420CDD2C4480EA2E
S214084B80020281EA030382EA000083EA010180EA5E
S214084B90020281EA0303362D88BF30BD11F0004FAC
S214084BA04FEA01314FF4801C4CEA113102D04042E2
S214084BB061EB410113F0004F4FEA03334CEA13331D
S214084BC002D0524263EB430394EA050F00F0A78035
S214084BD0A4F10104D5F1200E0DDB02FA0EFC22FA30
S214084BE005F2801841F1000103FA0EF2801843FA24
S214084BF005F359410EE0A5F120050EF1200E012A15
S214084C0003FA0EFC28BF4CF0020C43FA05F3C01852
S214084C1051EBE37101F0004507D54FF0000EDCF1CB
S214084C20000C7EEB00006EEB0101B1F5801F1BD374
S214084C30B1F5001F0CD349085FEA30004FEA3C0C78
S214084C4004F101044FEA445212F5800F80F09A806E
S214084C50BCF1004F08BF5FEA500C50F1000041EB72
S214084C60045141EA050130BD5FEA4C0C404141EB76
S214084C70010111F4801FA4F10104E9D191F0000F9D
S214084C8004BF01460020B1FA81F308BF2033A3F120
S214084C900B03B3F120020CDA0C3208DD02F1140C17
S214084CA0C2F10C0201FA0CF021FA02F10CE002F152
S214084CB01402D8BFC2F1200C01FA02F120FA0CFC4B
S214084CC0DCBF41EA0C019040E41AA2BF01EB045194
S214084CD0294330BD6FEA04041F3C1CDA0C340EDC92
S214084CE004F11404C4F1200220FA04F001FA02F3D5
S214084CF040EA030021FA04F345EA030130BDC4F193
S214084D000C04C4F1200220FA02F001FA04F340EA87
S214084D100300294630BD21FA04F0294630BD94F038
S214084D20000F83F4801306BF81F480110134013D1F
S214084D304EE77FEA645C18BF7FEA655C29D094EA90
S214084D40050F08BF90EA020F05D054EA000C04BF0E
S214084D501946104630BD91EA030F1EBF00210020F9
S214084D6030BD5FEA545C05D14000494128BF41F098
S214084D70004130BD14F580043CBF01F5801130BDFC
S214084D8001F0004545F0FE4141F470014FF0000087
S214084D9030BD7FEA645C1ABF194610467FEA655C38
S214084DA01CBF0B46024650EA013406BF52EA0335DA
S214084DB091EA030F41F4002130BD00BF90F0000FC8
S214084DC004BF0021704730B54FF4806404F1320404
S214084DD04FF000054FF0000150E700BF90F0000FBD
S214084DE004BF0021704730B54FF4806404F13204E4
S214084DF010F0004548BF40424FF000013EE700BFB4
S214084E0042004FEAE2014FEA31014FEA02701FBF43
S214084E1012F07F4393F07F4F81F06051704792F015
S214084E20000F14BF93F07F4F704730B54FF460748F
S214084E3001F0004521F0004120E700BF50EA0102DA
S214084E4008BF704730B54FF000050AE050EA010287
S214084E5008BF704730B511F0004502D5404261EBF7
S214084E6041014FF4806404F132045FEA915C3FF438
S214084E70DCAE4FF003025FEADC0C18BF03325FEAD1
S214084E80DC0C18BF033202EBDC02C2F1200300FA86
S214084E9003FC20FA02F001FA03FE40EA0E0021FAAB
S214084EA002F11444C1E600BF70B54FF0FF0C4CF495
S214084EB0E06C1CEA11541DBF1CEA135594EA0C0F4B
S214084EC095EA0C0F00F0DEF82C4481EA030621EA86
S214084ED04C5123EA4C5350EA013518BF52EA0335C1
S214084EE041F4801143F4801338D0A0FB02CE4FF073
S214084EF00005E1FB02E506F00042E0FB03E54FF0A3
S214084F000006E1FB03569CF0000F18BF4EF0010E9A
S214084F10A4F1FF04B6F5007F64F5407404D25FEA96
S214084F204E0E6D4146EB060642EAC62141EA555149
S214084F304FEAC52040EA5E504FEACE2EB4F1FD0C8B
S214084F4088BFBCF5E06F1ED8BEF1004F08BF5FEA09
S214084F50500E50F1000041EB045170BD06F00046BB
S214084F6046EA010140EA020081EA0301B4EB5C0468
S214084F70C2BFD4EB0C0541EA045170BD41F4801160
S214084F804FF0000E013C00F3AB8014F1360FDEBF85
S214084F90002001F0004170BDC4F10004203C35DA61
S214084FA00C341BDC04F11404C4F1200500FA05F3E4
S214084FB020FA04F001FA05F240EA020001F0004285
S214084FC021F0004110EBD37021FA04F642EB0601FB
S214084FD05EEA430E08BF20EAD37070BDC4F10C0425
S214084FE0C4F1200500FA04F320FA05F001FA04F2E9
S214084FF040EA020001F0004110EBD37041F10001D5
S2140850005EEA430E08BF20EAD37070BDC4F12005DF
S21408501000FA05F24EEA020E20FA04F301FA05F247
S21408502043EA020321FA04F001F0004121FA04F2EF
S21408503020EA020000EBD3705EEA430E08BF20EABF
S214085040D37070BD94F0000F0FD101F000464000F9
S21408505041EB010111F4801F08BF013CF7D041EA7B
S214085060060195F0000F18BF704703F0004652007F
S21408507043EB030313F4801F08BF013DF7D043EA50
S2140850800603704794EA0C0F0CEA135518BF95EA06
S2140850900C0F0CD050EA410618BF52EA4306D1D18D
S2140850A081EA030101F000414FF0000070BD50EAAC
S2140850B0410606BF1046194652EA430619D094EA36
S2140850C00C0F02D150EA013613D195EA0C0F05D120
S2140850D052EA03361CBF104619460AD181EA030174
S2140850E001F0004141F0FE4141F470014FF000002C
S2140850F070BD41F0FE4141F4780170BD70B54FF0C7
S214085100FF0C4CF4E06C1CEA11541DBF1CEA135546
S21408511094EA0C0F95EA0C0F00F0A7F8A4EB050428
S21408512081EA030E52EA03354FEA013100F088801F
S2140851304FEA03334FF0805545EA131343EA1263E8
S2140851404FEA022245EA111545EA10654FEA00269D
S2140851500EF000419D4208BF964244F1FD0404F556
S214085160407402D25B084FEA3202B61A65EB0305B2
S2140851705B084FEA32024FF480104FF4002CB6EB6F
S214085180020E75EB030E22BFB61A754640EA0C00EF
S2140851905B084FEA3202B6EB020E75EB030E22BF2F
S2140851A0B61A754640EA5C005B084FEA3202B6EB70
S2140851B0020E75EB030E22BFB61A754640EA9C002F
S2140851C05B084FEA3202B6EB020E75EB030E22BFFF
S2140851D0B61A754640EADC0055EA060E18D04FEABD
S2140851E0051545EA16754FEA06164FEAC30343EA5D
S2140851F052734FEAC2025FEA1C1CC0D111F4801F2A
S2140852000BD141EA00014FF000004FF0004CB6E722
S21408521011F4801F04BF01430020B4F1FD0C88BFC1
S214085220BCF5E06F3FF6AFAEB5EB030C04BFB6EBCC
S214085230020C5FEA500C50F1000041EB045170BDBF
S2140852400EF0004E4EEA113114EB5C04C2BFD4EBEC
S2140852500C0541EA045170BD41F480114FF0000E70
S214085260013C90E645EA060E8DE60CEA135594EAEC
S2140852700C0F08BF95EA0C0F3FF43BAF94EA0C0FEF
S2140852800AD150EA01347FF434AF95EA0C0F7FF464
S21408529025AF104619462CE795EA0C0F06D152EAB8
S2140852A003353FF4FDAE1046194622E750EA41069C
S2140852B018BF52EA43067FF4C5AE50EA41047FF4AD
S2140852C00DAF52EA43057FF4EBAE12E74FF0FF3C12
S2140852D006E000BF4FF0010C02E000BF4FF0010CE3
S2140852E04DF804CD4FEA410C7FEA6C5C4FEA430C5C
S2140852F018BF7FEA6C5C1BD001B050EA410C0CBFAB
S21408530052EA430C91EA030F02BF90EA020F00200C
S214085310704710F1000F91EA030F58BF994208BF73
S21408532090422CBFD8176FEAE37040F00100704730
S2140853304FEA410C7FEA6C5C02D150EA013C07D187
S2140853404FEA430C7FEA6C5CD6D152EA033CD3D0D2
S2140853505DF8040B704700BF8446104662468C46CC
S2140853601946634600E000BF01B5FFF7B7FF0028FF
S21408537048BF10F1000F01BD4DF808EDFFF7F4FF28
S2140853800CBF012000205DF808FB00BF4DF808EDB3
S214085390FFF7EAFF34BF012000205DF808FB00BFD6
S2140853A04DF808EDFFF7E0FF94BF012000205DF8F8
S2140853B008FB00BF4DF808EDFFF7CEFF94BF0120AD
S2140853C000205DF808FB00BF4DF808EDFFF7C4FFA6
S2140853D034BF012000205DF808FB00BF4FEA4102F9
S2140853E012F5001215D211D56FF47873B3EB62522A
S2140853F012D94FEAC12343F0004343EA505311F051
S214085400004F23FA02F018BF404270474FF00000E2
S214085410704750EA013005D111F0004008BF6FF020
S214085420004070474FF00000704700BF4BB942B9C4
S214085430002908BF002802D04FF0FF31084600F0C8
S2140854403BB882B0EC462DE9005000F01DF8DDF8B8
S21408545004E002B00CBC70472DE9704F089E144655
S2140854601D468046894600F029F804FB01F3A4FB94
S21408547000AB00FB05329344B8EB0A0869EB0B094E
S214085480C6E90089BDE8708F2DE9704F089E14465E
S2140854901D468046894600F061F900FB05F5A0FB2D
S2140854A004AB04FB0154A344B8EB0A0869EB0B09E8
S2140854B0C6E90089BDE8708F704700BF00292DE94E
S2140854C0F00FC0F2A1800024002BC0F29880154689
S2140854D006460F46002B3FD18A4258D9B2FA82F3C5
S2140854E04BB1C3F1200201FA03F720FA02F29D40FD
S2140854F000FA03F61743290CB7FBF1F201FB127703
S214085500A8B200FB02F34FEA164C4CEA0747BB4228
S21408551009D97F1902F1FF3C80F00581BB4240F2B1
S2140855200281023A2F44FF1AB7FBF1F301FB13710D
S21408553000FB03F0B6B246EA0141884208D9491989
S21408554003F1FF3780F0F180884240F2EE80023B9C
S21408555043EA0242002303E08B420AD900231A4694
S2140855601046194614B1404261EB4101BDE8F00F00
S2140855707047B3FA83F8B8F1000F40F088808B4282
S21408558002D3824200F2E28000230122E8E712B941
S2140855900123B3FBF2F5B5FA85F2002A3AD17F1B50
S2140855A0280C1FFA85FC0123B7FBF0F100FB1177E6
S2140855B00CFB01F24FEA164848EA0747BA4207D9F1
S2140855C07F1901F1FF3802D2BA4200F2C480414680
S2140855D0BF1AB7FBF0F200FB12700CFB02FCB6B267
S2140855E046EA0040844507D9401902F1FF3702D23F
S2140855F0844500F2AE803A4642EA0142B0E7E44308
S214085600524263EB430362E7404261EB41014FF0CD
S214085610FF3459E79540C2F1200927FA09F126FA1E
S21408562009F99740280CB1FBF0F800FB18111FFA8F
S21408563085FC0CFB08F349EA07094FEA194747EACD
S21408564001418B4206FA02F608D9491908F1FF32D9
S2140856507AD28B4278D9A8F102082944C91AB1FB34
S214085660F0F300FB13170CFB03F21FFA89F949EA5B
S2140856700747BA4207D97F1903F1FF3160D2BA4209
S2140856805ED9023B2F44BF1A43EA08438CE7C8F1A9
S214085690200225FA02F103FA08FC27FA02F320FA98
S2140856A002F207FA08F741EA0C0C4FEA1C49B3FB6A
S2140856B0F9F109FB11331FFA8CFA0AFB01FB1743B1
S2140856C03A0C42EA03439B4505FA08F008D913EB5F
S2140856D00C0301F1FF3235D29B4533D902396344B6
S2140856E0CBEB0303B3FBF9F209FB12330AFB02FA0E
S2140856F0BFB247EA0347BA4508D917EB0C0702F1C9
S214085700FF331BD2BA4519D9023A674442EA014523
S214085710A5FB0001CAEB07078F424FF000030AD328
S21408572005D02A461CE76246FDE63B4610E706FA21
S21408573008F68642F5D26A1E002311E71A46E5E700
S2140857400B46A0E71146CBE7904687E74346424616
S21408575006E7023A50E702392F4439E72DE9F00FF9
S214085760144605460E46002B43D18A4253D9B2FA50
S21408577082F757B1C7F1200620FA06F601FA07F3B2
S21408578002FA07F400FA07F51E43210CB6FBF1F2FD
S21408579001FB1266A0B200FB02F32F0C47EA06468E
S2140857A0B34209D9361902F1FF3780F0FD80B342BB
S2140857B040F2FA80023A2644F61AB6FBF1F301FBE9
S2140857C0136100FB03F0ADB245EA0141884208D9EF
S2140857D0091903F1FF3680F0E980884240F2E68036
S2140857E0023B43EA0242002310461946BDE8F00F82
S2140857F070478B424CD8B3FA83F6002E4FD18B42B3
S21408580002D3824200F2DD80BDE8F00F00230122B9
S21408581010461946704712B90124B4FBF2F4B4FADC
S21408582084F2002A40F08280091B260CA7B20123C6
S214085830B1FBF6F006FB101107FB00F24FEA154C19
S2140858404CEA01418A4207D9091900F1FF3C02D205
S2140858508A4200F2C8806046891AB1FBF6F206FB57
S214085860121107FB02F7ADB245EA0145AF4208D967
S2140858702C1902F1FF3180F09B80A74240F29880F5
S214085880023A42EA004210461946BDE8F00F704751
S21408589000231A4610461946BDE8F00F7047C6F1B1
S2140858A0200522FA05F703FA06F421FA05F301FAA9
S2140858B006FB20FA05F53C434FEA1448B3FBF8FC10
S2140858C008FB1C331FFA84F909FB0CFA45EA0B0B94
