S014000050726F6A65637431343034622E737265630E
S214080000E8240720FD090800F9090800F90908008E
S214080010F9090800F9090800F909080000000000B5
S214080020000000000000000000000000F9090800B9
S214080030F909080000000000F9090800F909080095
S214080040F9090800F9090800F9090800F90908007B
S214080050F9090800F9090800F9090800F90908006B
S214080060F9090800F90908000000000069080800F6
S2140800707D08080091080800A50808000000000090
S21408008000000000F9090800F9090800F909080045
S214080090F9090800F9090800F9090800F90908002B
S2140800A0F909080000000000F90908009102080094
S2140800B0F9090800F9090800F9090800F90908000B
S2140800C0F9090800F9090800F9090800F9090800FB
S2140800D0F9090800F9090800F9090800F9090800EB
S2140800E0F9090800F9090800F9090800F9090800DB
S2140800F0F909080010B5054C237833B9044B13B139
S2140801000448AFF300800123237010BD3004072095
S21408011000000000D412080008B5064B1BB10648BC
S2140801200649AFF300800648036813B1054B03B1D0
S214080130984708BD00000000D412080034040720C1
S214080140D41208000000000038B525200E4B98474A
S2140801500E4C20460E490F4A00230F4DA84720464E
S21408016000210A460B460D4DA847204600210C4B99
S214080170984720460A210B4B9847204600210A46F6
S214080180094B984738BD00BFA109080000000C407D
S214080190007A030A002D3101010208005502080002
S2140801A0350208007D0208004502080038B52620FA
S2140801B00C4B98470C4C20460C4B98472046002181
S2140801C00B4B9847204601210A460023094DA847AD
S2140801D020460121084B984720460121074B98479F
S2140801E038BD00BFA109080000800C40B90308000C
S2140801F0C1030800F5030800DD030800250408000D
S21408020030B4012404600024446040F20225C0F89B
S2140802102051C0F80441C0F8144145682B435200E9
S214080220B1FBF2F14D1E2D02ADB22B4343602046C2
S21408023030BC70474368090101F010010B43436066
S214080240704700BF43681943D201D3B219434160CF
S214080250704700BF10B444682243090601F0706472
S21408026022431B0703F040531A4342605DF8044BD1
S214080270704700BF02230360704700BF012303FADC
S21408028001F10161704700BF006A7047006B704754
S2140802902DE9F04383B034480021344B9847019049
S2140802A0019B4FF08062324B1A633248324B9847B4
S2140802B0304D324C2846A04710F0807FFAD02D48A3
S2140802C02F4B98472F4CE3682361A368E360636865
S2140802D0A360236863602C4B9847206000240025A1
S2140802E0DFF8D090DFF89C80284F294E54F8090094
S2140802F054F80810B84701462846B047054604345F
S214080300142CF3D1234C214F20682349B8470146C3
S2140803101F4E2846B047054660682049B84701463C
S2140803202846B0478046A56828461D49B84701466E
S2140803304046B0478046E0681A49B8474146B04745
S214080340E5606368A360236863602060164B98477F
S21408035001461648164B98474FF08062044B5A637E
S21408036003B0BDE8F08300BF000008406D04080035
S21408037000100E4000000C40750208008D020800B0
S214080380890208004C040720BD0D08006D0E080001
S2140803905D0C08006004072026AD554080DC8CC044
S2140803A098432C40AD9424BF0D11080000800C40E3
S2140803B0D90308009412080001230360704700BFA1
S2140803C021B1436843F01003436003E0436823F019
S2140803D01003436000207047016270474368012994
S2140803E006D823F4981343EA014141600020704779
S2140803F00120704710B4446824F07C5424F47F44E9
S214080400090289B20C4312B144F4001401E024F442
S21408041000141B0603F07C531C43446000205DF860
S214080420044B7047012905D8012303FA01F101613D
S214080430002070470120704710B489014318022431
S21408044044504FF0FF319962196A5A605DF8044BC0
S214080450704700BF890105234350704700EB8111A0
S214080460CA61704700EB81114A62704700EB811140
S214080470086A704710B51B200E4B98470E4C20464E
S21408048000214FF480420D4B98472046002141F248
S21408049068020B4B98474FF000620A4B1A602046DA
S2140804A000211022084B984720460021074B984702
S2140804B010BD00BFA1090800000008403904080064
S2140804C05D04080000E100E0650408005504080023
S2140804D008B50D4B98470D4B98470B200C4CA0477A
S2140804E00C20A0470D20A0470E20A047094B4FF030
S2140804F080621A61C3F8A020074B9847074B9847B5
S214080500074B9847FEE700BF250508008505080045
S214080510A109080000100E4049010800AD010800B6
S2140805207504080010B50D480D4B984700203E216D
S2140805300C4B98470C4CA0470028FCD00B4B984710
S2140805400B4A0C4B9A620C4CA0470028FCD0102093
S2140805500A4B98470A4B984710BD00BF00BD0105D7
S214080560C90B08001D090800710908008109080060
S214080570013F0D2000060E4091090800B908080042
S214080580AD0A080010B54FF40042174B5A600B200E
S214080590164CA0470C20A0470D20A0470E20A047C9
S2140805A03B204FF06051124CA04755204FF0605149
S2140805B0A04756204FF06051A04768200D49A04735
S2140805C05C200D49A0470D484FF440714FF000627B
S2140805D00B4B98472B204FF00061A0472A204FF07E
S2140805E00061A04710BD00BF501A0E40A1090800C0
S2140805F0A90608007900002801000028000E0E4011
S2140806007D0708004264B1F1805F16D004D8C1B1F6
S214080610B1F1006F0AD013E0B1F1405F11D0B1F12B
S214080620605F0ED0B1F1205F0AD17047036F016F8B
S2140806300B4023EA0203036702E0036F13430367D2
S21408064042607047416412F0010F14BF41660166AC
S21408065012F00A0F14BF0162416212F0020F02D0B4
S214080660C0F8801004E012F0080F18BFC0F8801019
S21408067041610160704700BF10B44164019C0CB131
S214080680416600E001660BB1016500E041650AB10C
S214080690016300E04163016101605DF8044B704747
S2140806A0C06C7047806C704770B582B00D464409C0
S2140806B004F5001404F20774660201F0F044B4F17D
S2140806C0205F30D006D8B4F1006F0AD0B4F1805F4E
S2140806D018D049E0B4F1405F30D0B4F1605F2DD057
S2140806E042E000F01F000124844030464FF00061CD
S2140806F022461F4B984715F0010F14BF74663466E0
S214080700012032E000F01F000124844030464FF0FC
S21408071080512246164B984715F0010F14BF746691
S2140807203466012021E000F01F010124304604FA57
S21408073001F12A460F4B9847204616E000F01F01A5
S214080740012405F0605205EA04030093304604FAD3
S21408075001F1B2F1605F14BF00220122C5F38003E5
S214080760054DA847204600E0002002B070BD00BF37
S214080770050608004506080079060800F0B583B0A7
S21408078007460E46154602F0F044B4F1205F26D020
S21408079006D8B4F1006F0AD0B4F1805F13D034E005
S2140807A0B4F1405F1FD0B4F1605F1CD02DE04FF06D
S2140807B000613246164B984715F0010F14BF7E6647
S2140807C03E66012022E04FF080513246104B984793
S2140807D015F0010F14BF7E663E66012016E00D4B2D
S2140807E09847012012E005F0605205F001030093D7
S2140807F038463146B2F1605F14BF00220122C5F3C5
S2140808008003054CA047012000E0002003B0F0BD9F
S214080810050608004506080079060800F8B50446E7
S2140808200E460E4B9847054620460D4B9847054002
S21408083012D00C4C54F80C3CB3420AD154F8081C9D
S214080840294206D023683046984754F8083C25EADB
S21408085003051034002DEDD1F8BD00BFA106080031
S214080860A50608008004072008B502480B21024B9D
S214080870984708BD000E0E401D08080008B5024837
S2140808800C21024B984708BD00100E401D080800B2
S21408089008B502480D21024B984708BD00120E40C5
S2140808A01D08080008B502480E21024B984708BDE7
S2140808B000140E401D080800174B1A6B22F0700231
S2140808C0104318639B6E13F0080F09D14FF40063AA
S2140808D0114901E0013B19D08A6E12F0080FF9D0D1
S2140808E00D4B1A6B22F0030242F002021A63986E4E
S2140808F010F008000CD14FF40063074901E0013BF3
S21408090008D08A6E12F0080FF9D070470120704799
S214080910002070470120704700060E4038B1114984
S2140809200B6A114A1A40114B13430B6270470D4A63
S214080930136A23F45C1323F0030343F45C1343F0B5
S2140809400103090289B20B431362936E13F0010F79
S214080950FBD0044A136A43F09B7343F48033136254
S214080960704700BF00060E40FCFFC8FE02003701B5
S214080970024B986E00F48030704700BF00060E40A9
S2140809804FF00052014B9A62704700BF00060E40B7
S214080990024B986E00F00200704700BF00060E403B
S2140809A02C2820D81F280DD8124B9A69012383407B
S2140809B01A40934219D0012303FA00F00D4B186130
S2140809C0002070470B4BD3F80821203801238340BA
S2140809D01A4093420BD0012303FA00F0054BC3F8E4
S2140809E00001002070470120704700207047002053
S2140809F0704700BF00060E40FEE700BF10B51E4B4E
S214080A001E4A9A4203D01E4B1B4A9A4204D31D4BD9
S214080A101D4A9A420FD31AE01C4B1D4CE41A24F0C8
S214080A20030404340023144814495A581A5004334B
S214080A30A342FAD1EBE7174B1749C91A21F003016D
S214080A401A1D1144002243F8042F8B42FBD1134A87
S214080A5022F0604323F07F0311498B6002F1604265
S214080A60B2F5801F03D28A6842F000528A600D4BA6
S214080A7098470D4B9847FEE700000720D412080059
S214080A8030040720E4040720300407200400072069
S214080A90330407202C040720DF0407200000080082
S214080AA000ED00E04D110800D10408003E4B1B6B1A
S214080AB003F00303032B5FD8DFE803F0020E2B2BAB
S214080AC03A4B5B6913F0800F14BF4FF400424FF4A3
S214080AD0FA42374B1A604FE0334B1B6A13F0807F9D
S214080AE003D0344A324B1A6046E0334A304B1A6019
S214080AF02D4B1B6A03F07003102B02D0202B04D05A
S214080B003AE02E4A2A4B1A6036E02A4A284B1A60E0
S214080B1032E0254B1B6A13F0807F03D0254A244B0E
S214080B201A6012E0244A224B1A601F4B1B6A03F015
S214080B307003102B02D0202B04D006E01F4A1C4B53
S214080B401A6002E01B4A1A4B1A60174B1B6B03F01D
S214080B500303022B0DD1144B986A996A144BC0F301
S214080B600A401A6800FB0222C9B2B2FBF1F21A6008
S214080B7002E0134A0E4B1A600B4B1B6B03F0700314
S214080B80702B07D10A4B1A680E49A1FB02025208BD
S214080B901A607047044B196B054BC1F302111A68AB
S214080BA0CA401A60704700BF00060E40101A0E4072
S214080BB000000720001BB70000093D0000127A005D
S214080BC0001C4E0EABAAAAAA1B4B984206D80023B6
S214080BD01A4A136002F5007213607047184B984261
S214080BE007D84FF48073154A136002F50072136035
S214080BF07047144B984207D84FF400730F4A136097
S214080C0002F50072136070470F4B984207D84FF4EE
S214080C1040730A4A136002F50072136070470B4B64
S214080C20984294BF4FF480634FF4A063034A13605E
S214080C3002F5007213607047BFEA2101000A0E40F1
S214080C407FF0FA02FF8FD003FFB3C4047F4A5D0526
S214080C5080F0004002E000BF81F0004142001FBF64
S214080C605FEA410392EA030F7FEA226C7FEA236C6D
S214080C706AD04FEA1262D2EB1363C1BFD218414062
S214080C8048404140B8BF5B42192B88BF704710F0F8
S214080C90004F40F4000020F07F4018BF404211F09B
S214080CA0004F41F4000121F07F4118BF494292EA03
S214080CB0030F3FD0A2F1010241FA03FC10EB0C002F
S214080CC0C3F1200301FA03F100F0004302D54942BC
S214080CD060EB4000B0F5000F13D3B0F1807F06D369
S214080CE040084FEA310102F10102FE2A51D2B1F161
S214080CF0004F40EBC25008BF20F0010040EA030056
S214080D007047490040EB000010F4000FA2F1010202
S214080D10EDD1B0FA80FCACF1080CB2EB0C0200FA8C
S214080D200CF0AABF00EBC25052421843BCBFD040DA
S214080D301843704792F0000F81F4000106BF80F454
S214080D4000000132013BB5E74FEA41037FEA226C17
S214080D5018BF7FEA236C21D092EA030F04D092F0E2
S214080D60000F08BF0846704790EA010F1CBF002016
S214080D70704712F07F4F04D1400028BF40F0004073
S214080D80704712F100723CBF00F50000704700F093
S214080D90004343F0FE4040F4000070477FEA2262BA
S214080DA016BF08467FEA23630146420206BF5FEA8B
S214080DB0412390EA010F40F4800070474FF000038B
S214080DC004E000BF10F0004348BF40425FEA000C52
S214080DD008BF704743F0964301464FF000001CE0FA
S214080DE050EA010208BF70474FF000030AE000BF50
S214080DF050EA010208BF704711F0004302D540428E
S214080E0061EB41015FEA010C02BF844601460020FF
S214080E1043F0B64308BFA3F18053A3F50003BCFA1A
S214080E208CF2083AA3EBC25310DB01FA02FC6344C7
S214080E3000FA02FCC2F12002BCF1004F20FA02F2CE
S214080E4043EB020008BF20F00100704702F12002C1
S214080E5001FA02FCC2F1200250EA4C0021FA02F222
S214080E6043EB020008BF20EADC7070474FF0FF0C27
S214080E701CEAD0521EBF1CEAD15392EA0C0F93EA22
S214080E800C0F6FD01A4480EA010C400218BF5FEAC4
S214080E9041211ED04FF0006343EA501043EA511137
S214080EA0A0FB01310CF00040B1F5000F3EBF490031
S214080EB041EAD3715B0040EA010062F17F02FD2A35
S214080EC01DD8B3F1004F40EBC25008BF20F0010018
S214080ED0704790F0000F0CF0004C08BF49024CEA2F
S214080EE0502040EA51207F3AC2BFD2F1FF0340EAC1
S214080EF0C250704740F400004FF00003013A5DDC32
S214080F0012F1190FDCBF00F000407047C2F1000272
S214080F10410021FA02F1C2F1200200FA02FC5FEA5F
S214080F20310040F1000053EA4C0308BF20EADC70A9
S214080F30704792F0000F00F0004C02BF400010F41B
S214080F40000F013AF9D040EA0C0093F0000F01F0C8
S214080F50004C02BF490011F4000F013BF9D041EAEA
S214080F600C018FE70CEAD15392EA0C0F18BF93EAEC
S214080F700C0F0AD030F0004C18BF31F0004CD8D116
S214080F8080EA010000F00040704790F0000F17BF9D
S214080F9090F0004F084691F0000F91F0004F14D0E3
S214080FA092EA0C0F01D142020FD193EA0C0F03D13B
S214080FB04B0218BF084608D180EA010000F000403E
S214080FC040F0FE4040F40000704740F0FE4040F419
S214080FD0400070474FF0FF0C1CEAD0521EBF1CEAB8
S214080FE0D15392EA0C0F93EA0C0F69D0A2EB0302D6
S214080FF080EA010C49024FEA402037D04FF0805370
S21408100043EA111143EA10130CF000408B4238BF34
S2140810105B0042F17D024FF4000C8B4224BF5B1A42
S21408102040EA0C00B3EB510F24BFA3EB510340EA90
S2140810305C00B3EB910F24BFA3EB910340EA9C003E
S214081040B3EBD10F24BFA3EBD10340EADC001B01AE
S21408105018BF5FEA1C1CE0D1FD2A3FF650AF8B4252
S21408106040EBC25008BF20F0010070470CF0004C5F
S2140810704CEA50207F32C2BFD2F1FF0340EAC2508A
S214081080704740F400004FF00003013A37E792F04B
S214081090000F00F0004C02BF400010F4000F013AA9
S2140810A0F9D040EA0C0093F0000F01F0004C02BFA4
S2140810B0490011F4000F013BF9D041EA0C0195E70D
S2140810C00CEAD15392EA0C0F08D142027FF47DAFA6
S2140810D093EA0C0F7FF470AF084676E793EA0C0F96
S2140810E004D14B023FF44CAF08466EE730F0004C94
S2140810F018BF31F0004CCAD130F000427FF45CAF24
S21408110031F000437FF43CAF5FE700BF42000ED2E9
S214081110B2F1FE4F0BD34FF09E03B3EB126209D425
S2140811204FEA002343F0004323FA02F070474FF0DB
S2140811300000704712F1610F01D1420202D14FF050
S214081140FF3070474FF00000704700BF70B50F4E75
S2140811500F4D761BB61007D0043D0024013455F811
S214081160043F9847A642F9D10A4E0B4D00F0A0F866
S214081170761BB61008D0043D0024013455F8043F09
S2140811809847A642F9D170BD70BD00BFBC120800D2
S214081190BC120800C4120800BC120800024B13B1A7
S2140811A0024800F005B8704700000000BD110800AE
S2140811B0014600200246034600F018B838B5094D27
S2140811C0094C641BA41018BF05EB840505D0013C28
S2140811D055F8043D9847002CF9D1BDE8384000F092
S2140811E071B800BFD0120800D4120800F0B5274C1A
S2140811F085B026680746D6F84841002C40D0656872
S2140812001F2D1EDD224818B94FF0FF3005B0F0BD7F
S2140812104FF4C870039102920193AFF300800399CC
S2140812200446029A019B0028EED0D6F848510020C2
S214081230256060600546C6F84841C4F88801C4F8C9
S2140812408C013FB96B1C00200235636044F82510FA
S21408125005B0F0BD0126AE4004EB8500C0F8882036
S214081260D4F88821022F42EA0602C4F88821C0F87A
S2140812700831E7D1D4F88C311E43C4F88C61E1E715
S21408128006F5A674C6F84841B9E700BFAC120800D0
S214081290000000007FE8733C1CD9DCBC8CCB173DF3
S2140812A01CD9DCBC7FE8733C43000000080007201C
S2140812B0F8B500BFF8BC08BC9E4670479D110800EC
S2140812C019010800F8B500BFF8BC08BC9E46704770
S2080812D0F500080010
S2140812D400093D000000000000000000F40207209A
S2140812E45C030720C4030720000000000000000079
S2140812F400000000000000000000000000000000DD
S214081304000000000000000000000000A81208000A
S21408131400000000000000000000000000000000BC
S21408132400000000000000000000000000000000AC
S214081334000000000000000000000000000000009C
S214081344000000000000000000000000000000008C
S214081354000000000000000000000000000000007C
S214081364000000000000000000000000000000006C
S214081374000000000000000000000000000000005C
S21408138401000000000000000E33CDAB34126DE6F9
S214081394ECDE05000B000000000000000000000062
S2140813A4000000000000000000000000000000002C
S2140813B4000000000000000000000000000000001C
S2140813C4000000000000000000000000000000000C
S2140813D400000000000000000000000000000000FC
S8040809FDED
