S0140000746573744B6E6170704C65642E7372656341
S214080000E8250720A5070800A1070800A10708009B
S214080010A1070800A1070800A107080000000000C3
S214080020000000000000000000000000A107080013
S214080030A107080000000000A1070800A1070800A3
S214080040A1070800A1070800A1070800A1070800E3
S214080050A1070800A1070800A1070800A1070800D3
S214080060A1070800A1070800000000001106080004
S21408007025060800390608004D060800000000009E
S21408008000000000A1070800A1070800A107080053
S214080090A1070800A1070800A1070800A107080093
S2140800A0A107080000000000A1070800A107080033
S2140800B0A1070800A1070800A1070800A107080073
S2140800C0A1070800A1070800A1070800A107080063
S2140800D0A1070800A1070800A1070800A107080053
S2140800E0A1070800A1070800A1070800A107080043
S2140800F0A107080010B5054C237833B9044B13B193
S2140801000448AFF300800123237010BD580507206C
S214080110000000008C0B080008B5064B1BB106480B
S2140801200649AFF300800648036813B1054B03B1D0
S214080130984708BD000000008C0B08005C050720E7
S2140801408C0B08000000000010B489014318022434
S21408015044504FF0FF319962196A5A605DF8044BB3
S214080160704700BFC0F8C410704700BF8901052358
S21408017043507047890102234350704700EB8111B2
S2140801800869704710B50B200E4CA0470C20A047F6
S2140801900D20A0470E20A0470B4B4FF080721A6127
S2140801A0C3F8A0204FF400021A61C3F8A0204FF449
S2140801B080021A61C3F8A0204FF400121A61C3F82F
S2140801C0A02010BD4907080000120E402DE9F84F80
S2140801D0374A4FF000735361C2F8A030354C4FF0E1
S2140801E080526261C4F8A0204FF080626261C4F851
S2140801F0A0206361C4F8A0304FF0807363630A20C0
S2140802002D4DA8474FF4000363630A20A8474FF410
S214080210800363630A20A8474FF4001363630A2029
S214080220A8472546244CDFF888B03226EB6B03F047
S21408023080683046A047EB6B03F080593046A047ED
S214080240DBF83CA03046A047EF6B07F00077304657
S214080250A0471AF0007F08D14FF0807AC5F830A082
S2140802604FF47A70A047C5F834A0B9F1000F08D14A
S2140802704FF40009C5F830904FF47A70A047C5F8D7
S2140802803490B8F1000F08D14FF48008C5F83080D4
S2140802904FF47A70A047C5F83480002FC6D14FF4C3
S2140802A000172F634FF47A70A0476F63BEE700BF4E
S2140802B000100E4000120E40AD09080010B50E489A
S2140802C00E4B984700203E210D4B98470D4CA047F3
S2140802D00028FCD00C4B98470C4A0D4B9A620D4CE4
S2140802E0A0470028FCD010200B4B98470B4B98478C
S2140802F00148024B984710BD00BD0105A500072020
S214080300C50608001907080029070800013F0D2040
S21408031000060E4039070800610608005508080060
S21408032010B54FF40042164B5A600B20154CA047E8
S2140803300C20A0470D20A0470E20A0473B204FF0DA
S2140803406051114CA04755204FF06051A0475620E9
S2140803504FF06051A04768200C49A0475C200C4924
S214080360A0470C484FF440710B4A0C4B98472B207B
S2140803704FF00061A0472A204FF00061A04710BD4B
S214080380501A0E404907080045040800790000285E
S21408039001000028000E0E4001000008190508009C
S2140803A04264B1F1805F16D004D8C1B1B1F1006FD4
S2140803B00AD013E0B1F1405F11D0B1F1605F0ED002
S2140803C0B1F1205F0AD17047036F016F0B4023EA33
S2140803D00203036702E0036F134303674260704734
S2140803E0416412F0010F14BF4166016612F00A0F4D
S2140803F014BF0162416212F0020F02D0C0F88010EA
S21408040004E012F0080F18BFC0F8841041610160BC
S214080410704700BF10B44164019C0CB1416600E00F
S21408042001660BB1016500E041650AB1016300E0B1
S2140804304163016101605DF8044B7047C06C70470A
S214080440806C704770B582B00D46440904F50014F8
S21408045004F20774660201F0F044B4F1205F30D06D
S21408046006D8B4F1006F0AD0B4F1805F18D049E01E
S214080470B4F1405F30D0B4F1605F2DD042E000F0B8
S2140804801F000124844030464FF0006122461F4B6F
S214080490984715F0010F14BF74663466012032E0E1
S2140804A000F01F000124844030464FF08051224659
S2140804B0164B984715F0010F14BF74663466012072
S2140804C021E000F01F010124304604FA01F12A4613
S2140804D00F4B9847204616E000F01F01012405F050
S2140804E0605205EA04030093304604FA01F1B2F1BB
S2140804F0605F14BF00220122C5F38003054DA8479C
S214080500204600E0002002B070BD00BFA10308002E
S214080510E103080015040800F0B583B007460E4648
S214080520154602F0F044B4F1205F26D006D8B4F1A0
S214080530006F0AD0B4F1805F13D034E0B4F1405FA6
S2140805401FD0B4F1605F1CD02DE04FF0006132463A
S214080550164B984715F0010F14BF7E663E660120BD
S21408056022E04FF080513246104B984715F0010FA5
S21408057014BF7E663E66012016E00D4B98470120A4
S21408058012E005F0605205F0010300933846314644
S214080590B2F1605F14BF00220122C5F38003054C48
S2140805A0A047012000E0002003B0F0BDA10308002A
S2140805B0E1030800150408002DE9F04104460E463C
S2140805C0104B9847054620460F4B9847054017D0CE
S2140805D00E4F07F10C046C3754F80C3CB3420AD1A2
S2140805E054F8081C294206D023683046984754F821
S2140805F0083C25EA0305BC4202D01034002DEBD196
S214080600BDE8F0813D040800410408007405072091
S21408061008B502480B21024B984708BD000E0E404D
S214080620B905080008B502480C21024B984708BDD2
S21408063000100E40B905080008B502480D21024B07
S214080640984708BD00120E40B905080008B50248CC
S2140806500E21024B984708BD00140E40B905080045
S214080660174B1A6B22F07002104318639B6E13F038
S214080670080F09D14FF40063114901E0013B19D076
S2140806808A6E12F0080FF9D00D4B1A6B22F003028F
S21408069042F002021A63986E10F008000CD14FF46C
S2140806A00063074901E0013B08D08A6E12F0080F84
S2140806B0F9D0704701207047002070470120704726
S2140806C000060E4038B111490B6A114A1A40114B00
S2140806D013430B6270470D4A136A23F45C1323F026
S2140806E0030343F45C1343F00103090289B20B4386
S2140806F01362936E13F0010FFBD0044A136A43F09B
S2140807009B7343F480331362704700BF00060E40A5
S214080710FCFFC8FE02003701024B986E00F48030DA
S214080720704700BF00060E404FF00052014B9A6219
S214080730704700BF00060E40024B986E00F002009D
S214080740704700BF00060E402C2820D81F280DD85A
S214080750124B9A69012383401A40934219D0012309
S21408076003FA00F00D4B1861002070470B4BD3F8C6
S21408077008212038012383401A4093420BD00123D6
S21408078003FA00F0054BC3F800010020704701206B
S2140807907047002070470020704700BF00060E40D4
S2140807A0FEE700BF10B51E4B1E4A9A4203D01E4BEA
S2140807B01B4A9A4204D31D4B1D4A9A420FD31AE08D
S2140807C01C4B1D4CE41A24F003040434002314487C
S2140807D014495A581A500433A342FAD1EBE7174B78
S2140807E01749C91A21F003011A1D1144002243F8BB
S2140807F0042F8B42FBD1134A22F0604323F07F0379
S21408080011498B6002F16042B2F5801F03D28A68F4
S21408081042F000528A600D4B98470D4B9847FEE70A
S214080820000007208C0B080058050720E405072061
S21408083058050720040007205B05072054050720F5
S214080840DF0507200000080000ED00E0190A080090
S214080850E90908003E4B1B6B03F00303032B5FD824
S214080860DFE803F0020E2B2B3A4B5B6913F0800F80
S21408087014BF4FF400424FF4FA42374B1A604FE069
S214080880334B1B6A13F0807F03D0344A324B1A600E
S21408089046E0334A304B1A602D4B1B6A03F0700350
S2140808A0102B02D0202B04D03AE02E4A2A4B1A608E
S2140808B036E02A4A284B1A6032E0254B1B6A13F0AA
S2140808C0807F03D0254A244B1A6012E0244A224B24
S2140808D01A601F4B1B6A03F07003102B02D0202BE4
S2140808E004D006E01F4A1C4B1A6002E01B4A1A4B4B
S2140808F01A60174B1B6B03F00303022B0DD1144B26
S214080900986A996A144BC0F30A401A6800FB0222D8
S214080910C9B2B2FBF1F21A6002E0134A0E4B1A6033
S2140809200B4B1B6B03F07003702B07D10A4B1A682E
S2140809300E49A1FB020252081A607047044B196B55
S214080940054BC1F302111A68CA401A60704700BF07
S21408095000060E40101A0E402C010720001BB70098
S21408096000093D0000127A00001C4E0EABAAAAAA87
S21408097010B51B20084B9847084C204600210A460D
S214080980074B984720460021064B984720460021EB
S214080990054B9847002010BD49070800000008408E
S2140809A0490108006501080075010800F8B5044605
S2140809B009480021094B98472A2707FB04F7064EE3
S2140809C00025074C30462946A047B842FAD30248C5
S2140809D00021044B9847F8BD000008406D01080048
S2140809E07D0108007501080008B5064B9847064BB8
S2140809F09847064B9847064B9847064B984700205B
S214080A0008BD00BF71090800BD02080021030800E0
S214080A1085010800CD01080070B50F4E0F4D761BF6
S214080A20B61007D0043D0024013455F8043F984713
S214080A30A642F9D10A4E0B4D00F096F8761BB61072
S214080A4008D0043D0024013455F8043F9847A642D0
S214080A50F9D170BD70BD00BF740B0800740B080098
S214080A607C0B0800740B0800024B13B1024800F018
S214080A7005B8704700000000890A080001460020F3
S214080A800246034600F018B838B5094D094C641BF1
S214080A90A41018BF05EB840505D0013C55F8043DA5
S214080AA09847002CF9D1BDE8384000F067B800BF79
S214080AB0880B08008C0B0800F0B5274C85B0266814
S214080AC00746D6F84841002C40D065681F2D1EDD25
S214080AD0224818B94FF0FF3005B0F0BD4FF4C87083
S214080AE0039102920193AFF3008003990446029A99
S214080AF0019B0028EED0D6F848510020256060609B
S214080B000546C6F84841C4F88801C4F88C013FB9C0
S214080B106B1C00200235636044F8251005B0F0BD54
S214080B200126AE4004EB8500C0F88820D4F888215A
S214080B30022F42EA0602C4F88821C0F80831E7D135
S214080B40D4F88C311E43C4F88C61E1E706F5A67428
S214080B50C6F84841B9E700BF640B0800000000006B
S214080B604300000030010720F8B500BFF8BC08BCF9
S214080B709E467047690A080019010800F8B500BFC4
S210080B80F8BC08BC9E467047F50008004C
S214080B8C4FF48063204A136002F5007213601F4B03
S214080B9C1B6A13F0807F07D11D4A1C4B1A621A4633
S214080BAC936E13F0010FFBD01A4A184B1A621A46AA
S214080BBC936E13F4803FFBD0144B1A6B22F003028F
S214080BCC42F001021A631A46936E13F0080FFBD014
S214080BDC114A0E4B9A621A46936E13F0020FFBD00C
S214080BEC11220A4B1A631A46936E13F0080FFBD0A1
S214080BFC1222064B1A631A46936E13F0080FFBD094
S214080C0C064A074B1A607047000A0E4000060E404C
S214080C1C0908370009083701013F0D2000BD0105FA
S214080C2C2C0107201B4B984206D800231A4A13603F
S214080C3C02F5007213607047184B984207D84FF4A9
S214080C4C8073154A136002F5007213607047144BD4
S214080C5C984207D84FF400730F4A136002F50072D7
S214080C6C136070470F4B984207D84FF440730A4AE4
S214080C7C136002F50072136070470B4B984294BFD2
S214080C8C4FF480634FF4A063034A136002F50072B6
S214080C9C13607047BFEA2101000A0E407FF0FA0283
S214080CACFF8FD003FFB3C4047F4A5D0500093D00DF
S214080CBC000000001C04072084040720EC0407200E
S214080CCC000000000000000000000000000000000B
S214080CDC00000000000000000000000000000000FB
S214080CEC00000000600B0800000000000000000078
S214080CFC00000000000000000000000000000000DB
S214080D0C00000000000000000000000000000000CA
S214080D1C00000000000000000000000000000000BA
S214080D2C00000000000000000000000000000000AA
S214080D3C000000000000000000000000000000009A
S214080D4C000000000000000000000000000000008A
S214080D5C0000000000000000010000000000000079
S214080D6C0E33CDAB34126DE6ECDE05000B0000003E
S214080D7C000000000000000000000000000000005A
S214080D8C000000000000000000000000000000004A
S214080D9C000000000000000000000000000000003A
S214080DAC000000000000000000000000000000002A
S8040807A547
